{
	"contracts/CrowdFunding.sol": {
		"CrowdFunding": {
			"abi": [
				{
					"inputs": [
						{
							"internalType": "uint256",
							"name": "_target",
							"type": "uint256"
						},
						{
							"internalType": "uint256",
							"name": "_deadline",
							"type": "uint256"
						}
					],
					"stateMutability": "nonpayable",
					"type": "constructor"
				},
				{
					"inputs": [
						{
							"internalType": "address",
							"name": "",
							"type": "address"
						}
					],
					"name": "contributors",
					"outputs": [
						{
							"internalType": "uint256",
							"name": "",
							"type": "uint256"
						}
					],
					"stateMutability": "view",
					"type": "function"
				},
				{
					"inputs": [
						{
							"internalType": "string",
							"name": "_description",
							"type": "string"
						},
						{
							"internalType": "address payable",
							"name": "_recipient",
							"type": "address"
						},
						{
							"internalType": "uint256",
							"name": "_value",
							"type": "uint256"
						}
					],
					"name": "createRequest",
					"outputs": [],
					"stateMutability": "nonpayable",
					"type": "function"
				},
				{
					"inputs": [],
					"name": "deadLine",
					"outputs": [
						{
							"internalType": "uint256",
							"name": "",
							"type": "uint256"
						}
					],
					"stateMutability": "view",
					"type": "function"
				},
				{
					"inputs": [],
					"name": "getContractBalance",
					"outputs": [
						{
							"internalType": "uint256",
							"name": "",
							"type": "uint256"
						}
					],
					"stateMutability": "view",
					"type": "function"
				},
				{
					"inputs": [
						{
							"internalType": "uint256",
							"name": "_requestNo",
							"type": "uint256"
						}
					],
					"name": "makePayment",
					"outputs": [],
					"stateMutability": "nonpayable",
					"type": "function"
				},
				{
					"inputs": [],
					"name": "manager",
					"outputs": [
						{
							"internalType": "address",
							"name": "",
							"type": "address"
						}
					],
					"stateMutability": "view",
					"type": "function"
				},
				{
					"inputs": [],
					"name": "minContribution",
					"outputs": [
						{
							"internalType": "uint256",
							"name": "",
							"type": "uint256"
						}
					],
					"stateMutability": "view",
					"type": "function"
				},
				{
					"inputs": [],
					"name": "noOfContributors",
					"outputs": [
						{
							"internalType": "uint256",
							"name": "",
							"type": "uint256"
						}
					],
					"stateMutability": "view",
					"type": "function"
				},
				{
					"inputs": [],
					"name": "noOfRequests",
					"outputs": [
						{
							"internalType": "uint256",
							"name": "",
							"type": "uint256"
						}
					],
					"stateMutability": "view",
					"type": "function"
				},
				{
					"inputs": [],
					"name": "raiseAmount",
					"outputs": [
						{
							"internalType": "uint256",
							"name": "",
							"type": "uint256"
						}
					],
					"stateMutability": "view",
					"type": "function"
				},
				{
					"inputs": [],
					"name": "reFund",
					"outputs": [],
					"stateMutability": "nonpayable",
					"type": "function"
				},
				{
					"inputs": [],
					"name": "sendEther",
					"outputs": [],
					"stateMutability": "payable",
					"type": "function"
				},
				{
					"inputs": [],
					"name": "target",
					"outputs": [
						{
							"internalType": "uint256",
							"name": "",
							"type": "uint256"
						}
					],
					"stateMutability": "view",
					"type": "function"
				},
				{
					"inputs": [
						{
							"internalType": "uint256",
							"name": "_requestNo",
							"type": "uint256"
						}
					],
					"name": "voteRequest",
					"outputs": [],
					"stateMutability": "nonpayable",
					"type": "function"
				}
			],
			"devdoc": {
				"kind": "dev",
				"methods": {},
				"version": 1
			},
			"evm": {
				"assembly": "    /* \"contracts/CrowdFunding.sol\":70:3005  contract CrowdFunding {... */\n  mstore(0x40, 0x80)\n    /* \"contracts/CrowdFunding.sol\":723:911  constructor(uint _target, uint _deadline) {... */\n  callvalue\n  dup1\n  iszero\n  tag_1\n  jumpi\n  0x00\n  dup1\n  revert\ntag_1:\n  pop\n  mload(0x40)\n  sub(codesize, bytecodeSize)\n  dup1\n  bytecodeSize\n  dup4\n  codecopy\n  dup2\n  dup2\n  add\n  0x40\n  mstore\n  dup2\n  add\n  swap1\n  tag_2\n  swap2\n  swap1\n  tag_3\n  jump\t// in\ntag_2:\n    /* \"contracts/CrowdFunding.sol\":784:791  _target */\n  dup2\n    /* \"contracts/CrowdFunding.sol\":775:781  target */\n  0x04\n    /* \"contracts/CrowdFunding.sol\":775:791  target = _target */\n  dup2\n  swap1\n  sstore\n  pop\n    /* \"contracts/CrowdFunding.sol\":830:839  _deadline */\n  dup1\n    /* \"contracts/CrowdFunding.sol\":812:827  block.timestamp */\n  timestamp\n    /* \"contracts/CrowdFunding.sol\":812:839  block.timestamp + _deadline */\n  tag_6\n  swap2\n  swap1\n  tag_7\n  jump\t// in\ntag_6:\n    /* \"contracts/CrowdFunding.sol\":801:809  deadLine */\n  0x03\n    /* \"contracts/CrowdFunding.sol\":801:839  deadLine = block.timestamp + _deadline */\n  dup2\n  swap1\n  sstore\n  pop\n    /* \"contracts/CrowdFunding.sol\":867:874  100 wei */\n  0x64\n    /* \"contracts/CrowdFunding.sol\":849:864  minContribution */\n  0x02\n    /* \"contracts/CrowdFunding.sol\":849:874  minContribution = 100 wei */\n  dup2\n  swap1\n  sstore\n  pop\n    /* \"contracts/CrowdFunding.sol\":894:904  msg.sender */\n  caller\n    /* \"contracts/CrowdFunding.sol\":884:891  manager */\n  0x01\n  0x00\n    /* \"contracts/CrowdFunding.sol\":884:904  manager = msg.sender */\n  0x0100\n  exp\n  dup2\n  sload\n  dup2\n  0xffffffffffffffffffffffffffffffffffffffff\n  mul\n  not\n  and\n  swap1\n  dup4\n  0xffffffffffffffffffffffffffffffffffffffff\n  and\n  mul\n  or\n  swap1\n  sstore\n  pop\n    /* \"contracts/CrowdFunding.sol\":723:911  constructor(uint _target, uint _deadline) {... */\n  pop\n  pop\n    /* \"contracts/CrowdFunding.sol\":70:3005  contract CrowdFunding {... */\n  jump(tag_8)\n    /* \"#utility.yul\":7:150   */\ntag_10:\n    /* \"#utility.yul\":64:69   */\n  0x00\n    /* \"#utility.yul\":95:101   */\n  dup2\n    /* \"#utility.yul\":89:102   */\n  mload\n    /* \"#utility.yul\":80:102   */\n  swap1\n  pop\n    /* \"#utility.yul\":111:144   */\n  tag_12\n    /* \"#utility.yul\":138:143   */\n  dup2\n    /* \"#utility.yul\":111:144   */\n  tag_13\n  jump\t// in\ntag_12:\n    /* \"#utility.yul\":7:150   */\n  swap3\n  swap2\n  pop\n  pop\n  jump\t// out\n    /* \"#utility.yul\":156:663   */\ntag_3:\n    /* \"#utility.yul\":235:241   */\n  0x00\n    /* \"#utility.yul\":243:249   */\n  dup1\n    /* \"#utility.yul\":292:294   */\n  0x40\n    /* \"#utility.yul\":280:289   */\n  dup4\n    /* \"#utility.yul\":271:278   */\n  dup6\n    /* \"#utility.yul\":267:290   */\n  sub\n    /* \"#utility.yul\":263:295   */\n  slt\n    /* \"#utility.yul\":260:379   */\n  iszero\n  tag_15\n  jumpi\n    /* \"#utility.yul\":298:377   */\n  tag_16\n  tag_17\n  jump\t// in\ntag_16:\n    /* \"#utility.yul\":260:379   */\ntag_15:\n    /* \"#utility.yul\":418:419   */\n  0x00\n    /* \"#utility.yul\":443:507   */\n  tag_18\n    /* \"#utility.yul\":499:506   */\n  dup6\n    /* \"#utility.yul\":490:496   */\n  dup3\n    /* \"#utility.yul\":479:488   */\n  dup7\n    /* \"#utility.yul\":475:497   */\n  add\n    /* \"#utility.yul\":443:507   */\n  tag_10\n  jump\t// in\ntag_18:\n    /* \"#utility.yul\":433:507   */\n  swap3\n  pop\n    /* \"#utility.yul\":389:517   */\n  pop\n    /* \"#utility.yul\":556:558   */\n  0x20\n    /* \"#utility.yul\":582:646   */\n  tag_19\n    /* \"#utility.yul\":638:645   */\n  dup6\n    /* \"#utility.yul\":629:635   */\n  dup3\n    /* \"#utility.yul\":618:627   */\n  dup7\n    /* \"#utility.yul\":614:636   */\n  add\n    /* \"#utility.yul\":582:646   */\n  tag_10\n  jump\t// in\ntag_19:\n    /* \"#utility.yul\":572:646   */\n  swap2\n  pop\n    /* \"#utility.yul\":527:656   */\n  pop\n    /* \"#utility.yul\":156:663   */\n  swap3\n  pop\n  swap3\n  swap1\n  pop\n  jump\t// out\n    /* \"#utility.yul\":750:1055   */\ntag_7:\n    /* \"#utility.yul\":790:793   */\n  0x00\n    /* \"#utility.yul\":809:829   */\n  tag_23\n    /* \"#utility.yul\":827:828   */\n  dup3\n    /* \"#utility.yul\":809:829   */\n  tag_24\n  jump\t// in\ntag_23:\n    /* \"#utility.yul\":804:829   */\n  swap2\n  pop\n    /* \"#utility.yul\":843:863   */\n  tag_25\n    /* \"#utility.yul\":861:862   */\n  dup4\n    /* \"#utility.yul\":843:863   */\n  tag_24\n  jump\t// in\ntag_25:\n    /* \"#utility.yul\":838:863   */\n  swap3\n  pop\n    /* \"#utility.yul\":997:998   */\n  dup3\n    /* \"#utility.yul\":929:995   */\n  0xffffffffffffffffffffffffffffffffffffffffffffffffffffffffffffffff\n    /* \"#utility.yul\":925:999   */\n  sub\n    /* \"#utility.yul\":922:923   */\n  dup3\n    /* \"#utility.yul\":919:1000   */\n  gt\n    /* \"#utility.yul\":916:1023   */\n  iszero\n  tag_26\n  jumpi\n    /* \"#utility.yul\":1003:1021   */\n  tag_27\n  tag_28\n  jump\t// in\ntag_27:\n    /* \"#utility.yul\":916:1023   */\ntag_26:\n    /* \"#utility.yul\":1047:1048   */\n  dup3\n    /* \"#utility.yul\":1044:1045   */\n  dup3\n    /* \"#utility.yul\":1040:1049   */\n  add\n    /* \"#utility.yul\":1033:1049   */\n  swap1\n  pop\n    /* \"#utility.yul\":750:1055   */\n  swap3\n  swap2\n  pop\n  pop\n  jump\t// out\n    /* \"#utility.yul\":1061:1138   */\ntag_24:\n    /* \"#utility.yul\":1098:1105   */\n  0x00\n    /* \"#utility.yul\":1127:1132   */\n  dup2\n    /* \"#utility.yul\":1116:1132   */\n  swap1\n  pop\n    /* \"#utility.yul\":1061:1138   */\n  swap2\n  swap1\n  pop\n  jump\t// out\n    /* \"#utility.yul\":1144:1324   */\ntag_28:\n    /* \"#utility.yul\":1192:1269   */\n  0x4e487b7100000000000000000000000000000000000000000000000000000000\n    /* \"#utility.yul\":1189:1190   */\n  0x00\n    /* \"#utility.yul\":1182:1270   */\n  mstore\n    /* \"#utility.yul\":1289:1293   */\n  0x11\n    /* \"#utility.yul\":1286:1287   */\n  0x04\n    /* \"#utility.yul\":1279:1294   */\n  mstore\n    /* \"#utility.yul\":1313:1317   */\n  0x24\n    /* \"#utility.yul\":1310:1311   */\n  0x00\n    /* \"#utility.yul\":1303:1318   */\n  revert\n    /* \"#utility.yul\":1453:1570   */\ntag_17:\n    /* \"#utility.yul\":1562:1563   */\n  0x00\n    /* \"#utility.yul\":1559:1560   */\n  dup1\n    /* \"#utility.yul\":1552:1564   */\n  revert\n    /* \"#utility.yul\":1576:1698   */\ntag_13:\n    /* \"#utility.yul\":1649:1673   */\n  tag_35\n    /* \"#utility.yul\":1667:1672   */\n  dup2\n    /* \"#utility.yul\":1649:1673   */\n  tag_24\n  jump\t// in\ntag_35:\n    /* \"#utility.yul\":1642:1647   */\n  dup2\n    /* \"#utility.yul\":1639:1674   */\n  eq\n    /* \"#utility.yul\":1629:1692   */\n  tag_36\n  jumpi\n    /* \"#utility.yul\":1688:1689   */\n  0x00\n    /* \"#utility.yul\":1685:1686   */\n  dup1\n    /* \"#utility.yul\":1678:1690   */\n  revert\n    /* \"#utility.yul\":1629:1692   */\ntag_36:\n    /* \"#utility.yul\":1576:1698   */\n  pop\n  jump\t// out\n    /* \"contracts/CrowdFunding.sol\":70:3005  contract CrowdFunding {... */\ntag_8:\n  dataSize(sub_0)\n  dup1\n  dataOffset(sub_0)\n  0x00\n  codecopy\n  0x00\n  return\nstop\n\nsub_0: assembly {\n        /* \"contracts/CrowdFunding.sol\":70:3005  contract CrowdFunding {... */\n      mstore(0x40, 0x80)\n      jumpi(tag_1, lt(calldatasize, 0x04))\n      shr(0xe0, calldataload(0x00))\n      dup1\n      0x5114cb52\n      gt\n      tag_16\n      jumpi\n      dup1\n      0xbef3a083\n      gt\n      tag_17\n      jumpi\n      dup1\n      0xbef3a083\n      eq\n      tag_12\n      jumpi\n      dup1\n      0xc1f11b4c\n      eq\n      tag_13\n      jumpi\n      dup1\n      0xd4b83992\n      eq\n      tag_14\n      jumpi\n      dup1\n      0xdb638f0b\n      eq\n      tag_15\n      jumpi\n      jump(tag_1)\n    tag_17:\n      dup1\n      0x5114cb52\n      eq\n      tag_9\n      jumpi\n      dup1\n      0x6f9fb98a\n      eq\n      tag_10\n      jumpi\n      dup1\n      0xaaffadf3\n      eq\n      tag_11\n      jumpi\n      jump(tag_1)\n    tag_16:\n      dup1\n      0x1f6d4942\n      gt\n      tag_18\n      jumpi\n      dup1\n      0x1f6d4942\n      eq\n      tag_5\n      jumpi\n      dup1\n      0x481c6a75\n      eq\n      tag_6\n      jumpi\n      dup1\n      0x4cb6f4a5\n      eq\n      tag_7\n      jumpi\n      dup1\n      0x4e260f6f\n      eq\n      tag_8\n      jumpi\n      jump(tag_1)\n    tag_18:\n      dup1\n      0x0e29df22\n      eq\n      tag_2\n      jumpi\n      dup1\n      0x0ff0a4df\n      eq\n      tag_3\n      jumpi\n      dup1\n      0x1b16bb5c\n      eq\n      tag_4\n      jumpi\n    tag_1:\n      0x00\n      dup1\n      revert\n        /* \"contracts/CrowdFunding.sol\":917:1280  function sendEther() public payable {... */\n    tag_2:\n      tag_19\n      tag_20\n      jump\t// in\n    tag_19:\n      stop\n        /* \"contracts/CrowdFunding.sol\":1393:1778  function reFund() public {... */\n    tag_3:\n      callvalue\n      dup1\n      iszero\n      tag_21\n      jumpi\n      0x00\n      dup1\n      revert\n    tag_21:\n      pop\n      tag_22\n      tag_23\n      jump\t// in\n    tag_22:\n      stop\n        /* \"contracts/CrowdFunding.sol\":1784:2187  function createRequest(string memory _description, address payable _recipient, uint _value) public onlyManager {... */\n    tag_4:\n      callvalue\n      dup1\n      iszero\n      tag_24\n      jumpi\n      0x00\n      dup1\n      revert\n    tag_24:\n      pop\n      tag_25\n      0x04\n      dup1\n      calldatasize\n      sub\n      dup2\n      add\n      swap1\n      tag_26\n      swap2\n      swap1\n      tag_27\n      jump\t// in\n    tag_26:\n      tag_28\n      jump\t// in\n    tag_25:\n      stop\n        /* \"contracts/CrowdFunding.sol\":98:142  mapping(address => uint) public contributors */\n    tag_5:\n      callvalue\n      dup1\n      iszero\n      tag_29\n      jumpi\n      0x00\n      dup1\n      revert\n    tag_29:\n      pop\n      tag_30\n      0x04\n      dup1\n      calldatasize\n      sub\n      dup2\n      add\n      swap1\n      tag_31\n      swap2\n      swap1\n      tag_32\n      jump\t// in\n    tag_31:\n      tag_33\n      jump\t// in\n    tag_30:\n      mload(0x40)\n      tag_34\n      swap2\n      swap1\n      tag_35\n      jump\t// in\n    tag_34:\n      mload(0x40)\n      dup1\n      swap2\n      sub\n      swap1\n      return\n        /* \"contracts/CrowdFunding.sol\":148:170  address public manager */\n    tag_6:\n      callvalue\n      dup1\n      iszero\n      tag_36\n      jumpi\n      0x00\n      dup1\n      revert\n    tag_36:\n      pop\n      tag_37\n      tag_38\n      jump\t// in\n    tag_37:\n      mload(0x40)\n      tag_39\n      swap2\n      swap1\n      tag_40\n      jump\t// in\n    tag_39:\n      mload(0x40)\n      dup1\n      swap2\n      sub\n      swap1\n      return\n        /* \"contracts/CrowdFunding.sol\":2193:2538  function voteRequest(uint _requestNo) public {... */\n    tag_7:\n      callvalue\n      dup1\n      iszero\n      tag_41\n      jumpi\n      0x00\n      dup1\n      revert\n    tag_41:\n      pop\n      tag_42\n      0x04\n      dup1\n      calldatasize\n      sub\n      dup2\n      add\n      swap1\n      tag_43\n      swap2\n      swap1\n      tag_44\n      jump\t// in\n    tag_43:\n      tag_45\n      jump\t// in\n    tag_42:\n      stop\n        /* \"contracts/CrowdFunding.sol\":289:317  uint public noOfContributors */\n    tag_8:\n      callvalue\n      dup1\n      iszero\n      tag_46\n      jumpi\n      0x00\n      dup1\n      revert\n    tag_46:\n      pop\n      tag_47\n      tag_48\n      jump\t// in\n    tag_47:\n      mload(0x40)\n      tag_49\n      swap2\n      swap1\n      tag_35\n      jump\t// in\n    tag_49:\n      mload(0x40)\n      dup1\n      swap2\n      sub\n      swap1\n      return\n        /* \"contracts/CrowdFunding.sol\":2545:3002  function makePayment(uint _requestNo) public onlyManager {... */\n    tag_9:\n      callvalue\n      dup1\n      iszero\n      tag_50\n      jumpi\n      0x00\n      dup1\n      revert\n    tag_50:\n      pop\n      tag_51\n      0x04\n      dup1\n      calldatasize\n      sub\n      dup2\n      add\n      swap1\n      tag_52\n      swap2\n      swap1\n      tag_44\n      jump\t// in\n    tag_52:\n      tag_53\n      jump\t// in\n    tag_51:\n      stop\n        /* \"contracts/CrowdFunding.sol\":1286:1387  function getContractBalance() public view returns(uint) {... */\n    tag_10:\n      callvalue\n      dup1\n      iszero\n      tag_54\n      jumpi\n      0x00\n      dup1\n      revert\n    tag_54:\n      pop\n      tag_55\n      tag_56\n      jump\t// in\n    tag_55:\n      mload(0x40)\n      tag_57\n      swap2\n      swap1\n      tag_35\n      jump\t// in\n    tag_57:\n      mload(0x40)\n      dup1\n      swap2\n      sub\n      swap1\n      return\n        /* \"contracts/CrowdFunding.sol\":177:204  uint public minContribution */\n    tag_11:\n      callvalue\n      dup1\n      iszero\n      tag_58\n      jumpi\n      0x00\n      dup1\n      revert\n    tag_58:\n      pop\n      tag_59\n      tag_60\n      jump\t// in\n    tag_59:\n      mload(0x40)\n      tag_61\n      swap2\n      swap1\n      tag_35\n      jump\t// in\n    tag_61:\n      mload(0x40)\n      dup1\n      swap2\n      sub\n      swap1\n      return\n        /* \"contracts/CrowdFunding.sol\":210:230  uint public deadLine */\n    tag_12:\n      callvalue\n      dup1\n      iszero\n      tag_62\n      jumpi\n      0x00\n      dup1\n      revert\n    tag_62:\n      pop\n      tag_63\n      tag_64\n      jump\t// in\n    tag_63:\n      mload(0x40)\n      tag_65\n      swap2\n      swap1\n      tag_35\n      jump\t// in\n    tag_65:\n      mload(0x40)\n      dup1\n      swap2\n      sub\n      swap1\n      return\n        /* \"contracts/CrowdFunding.sol\":566:590  uint public noOfRequests */\n    tag_13:\n      callvalue\n      dup1\n      iszero\n      tag_66\n      jumpi\n      0x00\n      dup1\n      revert\n    tag_66:\n      pop\n      tag_67\n      tag_68\n      jump\t// in\n    tag_67:\n      mload(0x40)\n      tag_69\n      swap2\n      swap1\n      tag_35\n      jump\t// in\n    tag_69:\n      mload(0x40)\n      dup1\n      swap2\n      sub\n      swap1\n      return\n        /* \"contracts/CrowdFunding.sol\":236:254  uint public target */\n    tag_14:\n      callvalue\n      dup1\n      iszero\n      tag_70\n      jumpi\n      0x00\n      dup1\n      revert\n    tag_70:\n      pop\n      tag_71\n      tag_72\n      jump\t// in\n    tag_71:\n      mload(0x40)\n      tag_73\n      swap2\n      swap1\n      tag_35\n      jump\t// in\n    tag_73:\n      mload(0x40)\n      dup1\n      swap2\n      sub\n      swap1\n      return\n        /* \"contracts/CrowdFunding.sol\":260:283  uint public raiseAmount */\n    tag_15:\n      callvalue\n      dup1\n      iszero\n      tag_74\n      jumpi\n      0x00\n      dup1\n      revert\n    tag_74:\n      pop\n      tag_75\n      tag_76\n      jump\t// in\n    tag_75:\n      mload(0x40)\n      tag_77\n      swap2\n      swap1\n      tag_35\n      jump\t// in\n    tag_77:\n      mload(0x40)\n      dup1\n      swap2\n      sub\n      swap1\n      return\n        /* \"contracts/CrowdFunding.sol\":917:1280  function sendEther() public payable {... */\n    tag_20:\n        /* \"contracts/CrowdFunding.sol\":989:997  deadLine */\n      sload(0x03)\n        /* \"contracts/CrowdFunding.sol\":971:986  block.timestamp */\n      timestamp\n        /* \"contracts/CrowdFunding.sol\":971:997  block.timestamp < deadLine */\n      lt\n        /* \"contracts/CrowdFunding.sol\":963:1021  require(block.timestamp < deadLine, \"Deadline has passed\") */\n      tag_79\n      jumpi\n      mload(0x40)\n      0x08c379a000000000000000000000000000000000000000000000000000000000\n      dup2\n      mstore\n      0x04\n      add\n      tag_80\n      swap1\n      tag_81\n      jump\t// in\n    tag_80:\n      mload(0x40)\n      dup1\n      swap2\n      sub\n      swap1\n      revert\n    tag_79:\n        /* \"contracts/CrowdFunding.sol\":1052:1067  minContribution */\n      sload(0x02)\n        /* \"contracts/CrowdFunding.sol\":1039:1048  msg.value */\n      callvalue\n        /* \"contracts/CrowdFunding.sol\":1039:1067  msg.value >= minContribution */\n      lt\n      iszero\n        /* \"contracts/CrowdFunding.sol\":1031:1104  require(msg.value >= minContribution, \"Minimum Contribution has not met\") */\n      tag_82\n      jumpi\n      mload(0x40)\n      0x08c379a000000000000000000000000000000000000000000000000000000000\n      dup2\n      mstore\n      0x04\n      add\n      tag_83\n      swap1\n      tag_84\n      jump\t// in\n    tag_83:\n      mload(0x40)\n      dup1\n      swap2\n      sub\n      swap1\n      revert\n    tag_82:\n        /* \"contracts/CrowdFunding.sol\":1146:1147  0 */\n      0x00\n        /* \"contracts/CrowdFunding.sol\":1118:1130  contributors */\n      dup1\n        /* \"contracts/CrowdFunding.sol\":1118:1142  contributors[msg.sender] */\n      0x00\n        /* \"contracts/CrowdFunding.sol\":1131:1141  msg.sender */\n      caller\n        /* \"contracts/CrowdFunding.sol\":1118:1142  contributors[msg.sender] */\n      0xffffffffffffffffffffffffffffffffffffffff\n      and\n      0xffffffffffffffffffffffffffffffffffffffff\n      and\n      dup2\n      mstore\n      0x20\n      add\n      swap1\n      dup2\n      mstore\n      0x20\n      add\n      0x00\n      keccak256\n      sload\n        /* \"contracts/CrowdFunding.sol\":1118:1147  contributors[msg.sender] == 0 */\n      eq\n        /* \"contracts/CrowdFunding.sol\":1115:1192  if(contributors[msg.sender] == 0) {... */\n      iszero\n      tag_85\n      jumpi\n        /* \"contracts/CrowdFunding.sol\":1163:1179  noOfContributors */\n      0x06\n      0x00\n        /* \"contracts/CrowdFunding.sol\":1163:1181  noOfContributors++ */\n      dup2\n      sload\n      dup1\n      swap3\n      swap2\n      swap1\n      tag_86\n      swap1\n      tag_87\n      jump\t// in\n    tag_86:\n      swap2\n      swap1\n      pop\n      sstore\n      pop\n        /* \"contracts/CrowdFunding.sol\":1115:1192  if(contributors[msg.sender] == 0) {... */\n    tag_85:\n        /* \"contracts/CrowdFunding.sol\":1230:1239  msg.value */\n      callvalue\n        /* \"contracts/CrowdFunding.sol\":1202:1214  contributors */\n      0x00\n        /* \"contracts/CrowdFunding.sol\":1202:1226  contributors[msg.sender] */\n      dup1\n        /* \"contracts/CrowdFunding.sol\":1215:1225  msg.sender */\n      caller\n        /* \"contracts/CrowdFunding.sol\":1202:1226  contributors[msg.sender] */\n      0xffffffffffffffffffffffffffffffffffffffff\n      and\n      0xffffffffffffffffffffffffffffffffffffffff\n      and\n      dup2\n      mstore\n      0x20\n      add\n      swap1\n      dup2\n      mstore\n      0x20\n      add\n      0x00\n      keccak256\n      0x00\n        /* \"contracts/CrowdFunding.sol\":1202:1239  contributors[msg.sender] += msg.value */\n      dup3\n      dup3\n      sload\n      tag_88\n      swap2\n      swap1\n      tag_89\n      jump\t// in\n    tag_88:\n      swap3\n      pop\n      pop\n      dup2\n      swap1\n      sstore\n      pop\n        /* \"contracts/CrowdFunding.sol\":1264:1273  msg.value */\n      callvalue\n        /* \"contracts/CrowdFunding.sol\":1249:1260  raiseAmount */\n      0x05\n      0x00\n        /* \"contracts/CrowdFunding.sol\":1249:1273  raiseAmount += msg.value */\n      dup3\n      dup3\n      sload\n      tag_90\n      swap2\n      swap1\n      tag_89\n      jump\t// in\n    tag_90:\n      swap3\n      pop\n      pop\n      dup2\n      swap1\n      sstore\n      pop\n        /* \"contracts/CrowdFunding.sol\":917:1280  function sendEther() public payable {... */\n      jump\t// out\n        /* \"contracts/CrowdFunding.sol\":1393:1778  function reFund() public {... */\n    tag_23:\n        /* \"contracts/CrowdFunding.sol\":1454:1462  deadLine */\n      sload(0x03)\n        /* \"contracts/CrowdFunding.sol\":1436:1451  block.timestamp */\n      timestamp\n        /* \"contracts/CrowdFunding.sol\":1436:1462  block.timestamp > deadLine */\n      gt\n        /* \"contracts/CrowdFunding.sol\":1428:1496  require(block.timestamp > deadLine, \"Deadline has not expired yet!\") */\n      tag_92\n      jumpi\n      mload(0x40)\n      0x08c379a000000000000000000000000000000000000000000000000000000000\n      dup2\n      mstore\n      0x04\n      add\n      tag_93\n      swap1\n      tag_94\n      jump\t// in\n    tag_93:\n      mload(0x40)\n      dup1\n      swap2\n      sub\n      swap1\n      revert\n    tag_92:\n        /* \"contracts/CrowdFunding.sol\":1528:1534  target */\n      sload(0x04)\n        /* \"contracts/CrowdFunding.sol\":1514:1525  raiseAmount */\n      sload(0x05)\n        /* \"contracts/CrowdFunding.sol\":1514:1534  raiseAmount < target */\n      lt\n        /* \"contracts/CrowdFunding.sol\":1506:1557  require(raiseAmount < target, \"Target has not met\") */\n      tag_95\n      jumpi\n      mload(0x40)\n      0x08c379a000000000000000000000000000000000000000000000000000000000\n      dup2\n      mstore\n      0x04\n      add\n      tag_96\n      swap1\n      tag_97\n      jump\t// in\n    tag_96:\n      mload(0x40)\n      dup1\n      swap2\n      sub\n      swap1\n      revert\n    tag_95:\n        /* \"contracts/CrowdFunding.sol\":1602:1603  0 */\n      0x00\n        /* \"contracts/CrowdFunding.sol\":1575:1587  contributors */\n      dup1\n        /* \"contracts/CrowdFunding.sol\":1575:1599  contributors[msg.sender] */\n      0x00\n        /* \"contracts/CrowdFunding.sol\":1588:1598  msg.sender */\n      caller\n        /* \"contracts/CrowdFunding.sol\":1575:1599  contributors[msg.sender] */\n      0xffffffffffffffffffffffffffffffffffffffff\n      and\n      0xffffffffffffffffffffffffffffffffffffffff\n      and\n      dup2\n      mstore\n      0x20\n      add\n      swap1\n      dup2\n      mstore\n      0x20\n      add\n      0x00\n      keccak256\n      sload\n        /* \"contracts/CrowdFunding.sol\":1575:1603  contributors[msg.sender] > 0 */\n      gt\n        /* \"contracts/CrowdFunding.sol\":1567:1631  require(contributors[msg.sender] > 0, \"Should be a Contributor\") */\n      tag_98\n      jumpi\n      mload(0x40)\n      0x08c379a000000000000000000000000000000000000000000000000000000000\n      dup2\n      mstore\n      0x04\n      add\n      tag_99\n      swap1\n      tag_100\n      jump\t// in\n    tag_99:\n      mload(0x40)\n      dup1\n      swap2\n      sub\n      swap1\n      revert\n    tag_98:\n        /* \"contracts/CrowdFunding.sol\":1642:1662  address payable user */\n      0x00\n        /* \"contracts/CrowdFunding.sol\":1673:1683  msg.sender */\n      caller\n        /* \"contracts/CrowdFunding.sol\":1642:1684  address payable user = payable(msg.sender) */\n      swap1\n      pop\n        /* \"contracts/CrowdFunding.sol\":1694:1698  user */\n      dup1\n        /* \"contracts/CrowdFunding.sol\":1694:1707  user.transfer */\n      0xffffffffffffffffffffffffffffffffffffffff\n      and\n        /* \"contracts/CrowdFunding.sol\":1694:1733  user.transfer(contributors[msg.sender]) */\n      0x08fc\n        /* \"contracts/CrowdFunding.sol\":1708:1720  contributors */\n      0x00\n        /* \"contracts/CrowdFunding.sol\":1708:1732  contributors[msg.sender] */\n      dup1\n        /* \"contracts/CrowdFunding.sol\":1721:1731  msg.sender */\n      caller\n        /* \"contracts/CrowdFunding.sol\":1708:1732  contributors[msg.sender] */\n      0xffffffffffffffffffffffffffffffffffffffff\n      and\n      0xffffffffffffffffffffffffffffffffffffffff\n      and\n      dup2\n      mstore\n      0x20\n      add\n      swap1\n      dup2\n      mstore\n      0x20\n      add\n      0x00\n      keccak256\n      sload\n        /* \"contracts/CrowdFunding.sol\":1694:1733  user.transfer(contributors[msg.sender]) */\n      swap1\n      dup2\n      iszero\n      mul\n      swap1\n      mload(0x40)\n      0x00\n      mload(0x40)\n      dup1\n      dup4\n      sub\n      dup2\n      dup6\n      dup9\n      dup9\n      call\n      swap4\n      pop\n      pop\n      pop\n      pop\n      iszero\n      dup1\n      iszero\n      tag_102\n      jumpi\n      returndatasize\n      0x00\n      dup1\n      returndatacopy\n      revert(0x00, returndatasize)\n    tag_102:\n      pop\n        /* \"contracts/CrowdFunding.sol\":1770:1771  0 */\n      0x00\n        /* \"contracts/CrowdFunding.sol\":1743:1755  contributors */\n      dup1\n        /* \"contracts/CrowdFunding.sol\":1743:1767  contributors[msg.sender] */\n      0x00\n        /* \"contracts/CrowdFunding.sol\":1756:1766  msg.sender */\n      caller\n        /* \"contracts/CrowdFunding.sol\":1743:1767  contributors[msg.sender] */\n      0xffffffffffffffffffffffffffffffffffffffff\n      and\n      0xffffffffffffffffffffffffffffffffffffffff\n      and\n      dup2\n      mstore\n      0x20\n      add\n      swap1\n      dup2\n      mstore\n      0x20\n      add\n      0x00\n      keccak256\n        /* \"contracts/CrowdFunding.sol\":1743:1771  contributors[msg.sender] = 0 */\n      dup2\n      swap1\n      sstore\n      pop\n        /* \"contracts/CrowdFunding.sol\":1418:1778  {... */\n      pop\n        /* \"contracts/CrowdFunding.sol\":1393:1778  function reFund() public {... */\n      jump\t// out\n        /* \"contracts/CrowdFunding.sol\":1784:2187  function createRequest(string memory _description, address payable _recipient, uint _value) public onlyManager {... */\n    tag_28:\n        /* \"contracts/CrowdFunding.sol\":652:659  manager */\n      0x01\n      0x00\n      swap1\n      sload\n      swap1\n      0x0100\n      exp\n      swap1\n      div\n      0xffffffffffffffffffffffffffffffffffffffff\n      and\n        /* \"contracts/CrowdFunding.sol\":638:659  msg.sender == manager */\n      0xffffffffffffffffffffffffffffffffffffffff\n      and\n        /* \"contracts/CrowdFunding.sol\":638:648  msg.sender */\n      caller\n        /* \"contracts/CrowdFunding.sol\":638:659  msg.sender == manager */\n      0xffffffffffffffffffffffffffffffffffffffff\n      and\n      eq\n        /* \"contracts/CrowdFunding.sol\":630:699  require(msg.sender == manager, \"Only Manager can call this function\") */\n      tag_104\n      jumpi\n      mload(0x40)\n      0x08c379a000000000000000000000000000000000000000000000000000000000\n      dup2\n      mstore\n      0x04\n      add\n      tag_105\n      swap1\n      tag_106\n      jump\t// in\n    tag_105:\n      mload(0x40)\n      dup1\n      swap2\n      sub\n      swap1\n      revert\n    tag_104:\n        /* \"contracts/CrowdFunding.sol\":1905:1931  Request storage newRequest */\n      0x00\n        /* \"contracts/CrowdFunding.sol\":1934:1942  requests */\n      0x07\n        /* \"contracts/CrowdFunding.sol\":1934:1956  requests[noOfRequests] */\n      0x00\n        /* \"contracts/CrowdFunding.sol\":1943:1955  noOfRequests */\n      sload(0x08)\n        /* \"contracts/CrowdFunding.sol\":1934:1956  requests[noOfRequests] */\n      dup2\n      mstore\n      0x20\n      add\n      swap1\n      dup2\n      mstore\n      0x20\n      add\n      0x00\n      keccak256\n        /* \"contracts/CrowdFunding.sol\":1905:1956  Request storage newRequest = requests[noOfRequests] */\n      swap1\n      pop\n        /* \"contracts/CrowdFunding.sol\":1966:1978  noOfRequests */\n      0x08\n      0x00\n        /* \"contracts/CrowdFunding.sol\":1966:1980  noOfRequests++ */\n      dup2\n      sload\n      dup1\n      swap3\n      swap2\n      swap1\n      tag_108\n      swap1\n      tag_87\n      jump\t// in\n    tag_108:\n      swap2\n      swap1\n      pop\n      sstore\n      pop\n        /* \"contracts/CrowdFunding.sol\":2015:2027  _description */\n      dup4\n        /* \"contracts/CrowdFunding.sol\":1990:2000  newRequest */\n      dup2\n        /* \"contracts/CrowdFunding.sol\":1990:2012  newRequest.description */\n      0x00\n      add\n        /* \"contracts/CrowdFunding.sol\":1990:2027  newRequest.description = _description */\n      swap1\n      dup1\n      mload\n      swap1\n      0x20\n      add\n      swap1\n      tag_109\n      swap3\n      swap2\n      swap1\n      tag_110\n      jump\t// in\n    tag_109:\n      pop\n        /* \"contracts/CrowdFunding.sol\":2060:2070  _recipient */\n      dup3\n        /* \"contracts/CrowdFunding.sol\":2037:2047  newRequest */\n      dup2\n        /* \"contracts/CrowdFunding.sol\":2037:2057  newRequest.recipient */\n      0x01\n      add\n      0x00\n        /* \"contracts/CrowdFunding.sol\":2037:2070  newRequest.recipient = _recipient */\n      0x0100\n      exp\n      dup2\n      sload\n      dup2\n      0xffffffffffffffffffffffffffffffffffffffff\n      mul\n      not\n      and\n      swap1\n      dup4\n      0xffffffffffffffffffffffffffffffffffffffff\n      and\n      mul\n      or\n      swap1\n      sstore\n      pop\n        /* \"contracts/CrowdFunding.sol\":2099:2105  _value */\n      dup2\n        /* \"contracts/CrowdFunding.sol\":2080:2090  newRequest */\n      dup2\n        /* \"contracts/CrowdFunding.sol\":2080:2096  newRequest.value */\n      0x02\n      add\n        /* \"contracts/CrowdFunding.sol\":2080:2105  newRequest.value = _value */\n      dup2\n      swap1\n      sstore\n      pop\n        /* \"contracts/CrowdFunding.sol\":2140:2145  false */\n      0x00\n        /* \"contracts/CrowdFunding.sol\":2115:2125  newRequest */\n      dup2\n        /* \"contracts/CrowdFunding.sol\":2115:2137  newRequest.isCompleted */\n      0x03\n      add\n      0x00\n        /* \"contracts/CrowdFunding.sol\":2115:2145  newRequest.isCompleted = false */\n      0x0100\n      exp\n      dup2\n      sload\n      dup2\n      0xff\n      mul\n      not\n      and\n      swap1\n      dup4\n      iszero\n      iszero\n      mul\n      or\n      swap1\n      sstore\n      pop\n        /* \"contracts/CrowdFunding.sol\":2179:2180  0 */\n      0x00\n        /* \"contracts/CrowdFunding.sol\":2155:2165  newRequest */\n      dup2\n        /* \"contracts/CrowdFunding.sol\":2155:2176  newRequest.noOfVoters */\n      0x04\n      add\n        /* \"contracts/CrowdFunding.sol\":2155:2180  newRequest.noOfVoters = 0 */\n      dup2\n      swap1\n      sstore\n      pop\n        /* \"contracts/CrowdFunding.sol\":1895:2187  {... */\n      pop\n        /* \"contracts/CrowdFunding.sol\":1784:2187  function createRequest(string memory _description, address payable _recipient, uint _value) public onlyManager {... */\n      pop\n      pop\n      pop\n      jump\t// out\n        /* \"contracts/CrowdFunding.sol\":98:142  mapping(address => uint) public contributors */\n    tag_33:\n      mstore(0x20, 0x00)\n      dup1\n      0x00\n      mstore\n      keccak256(0x00, 0x40)\n      0x00\n      swap2\n      pop\n      swap1\n      pop\n      sload\n      dup2\n      jump\t// out\n        /* \"contracts/CrowdFunding.sol\":148:170  address public manager */\n    tag_38:\n      0x01\n      0x00\n      swap1\n      sload\n      swap1\n      0x0100\n      exp\n      swap1\n      div\n      0xffffffffffffffffffffffffffffffffffffffff\n      and\n      dup2\n      jump\t// out\n        /* \"contracts/CrowdFunding.sol\":2193:2538  function voteRequest(uint _requestNo) public {... */\n    tag_45:\n        /* \"contracts/CrowdFunding.sol\":2283:2284  0 */\n      0x00\n        /* \"contracts/CrowdFunding.sol\":2256:2268  contributors */\n      dup1\n        /* \"contracts/CrowdFunding.sol\":2256:2280  contributors[msg.sender] */\n      0x00\n        /* \"contracts/CrowdFunding.sol\":2269:2279  msg.sender */\n      caller\n        /* \"contracts/CrowdFunding.sol\":2256:2280  contributors[msg.sender] */\n      0xffffffffffffffffffffffffffffffffffffffff\n      and\n      0xffffffffffffffffffffffffffffffffffffffff\n      and\n      dup2\n      mstore\n      0x20\n      add\n      swap1\n      dup2\n      mstore\n      0x20\n      add\n      0x00\n      keccak256\n      sload\n        /* \"contracts/CrowdFunding.sol\":2256:2284  contributors[msg.sender] > 0 */\n      gt\n        /* \"contracts/CrowdFunding.sol\":2248:2306  require(contributors[msg.sender] > 0, \"Not a contributor\") */\n      tag_112\n      jumpi\n      mload(0x40)\n      0x08c379a000000000000000000000000000000000000000000000000000000000\n      dup2\n      mstore\n      0x04\n      add\n      tag_113\n      swap1\n      tag_114\n      jump\t// in\n    tag_113:\n      mload(0x40)\n      dup1\n      swap2\n      sub\n      swap1\n      revert\n    tag_112:\n        /* \"contracts/CrowdFunding.sol\":2316:2343  Request storage thisRequest */\n      0x00\n        /* \"contracts/CrowdFunding.sol\":2346:2354  requests */\n      0x07\n        /* \"contracts/CrowdFunding.sol\":2346:2366  requests[_requestNo] */\n      0x00\n        /* \"contracts/CrowdFunding.sol\":2355:2365  _requestNo */\n      dup4\n        /* \"contracts/CrowdFunding.sol\":2346:2366  requests[_requestNo] */\n      dup2\n      mstore\n      0x20\n      add\n      swap1\n      dup2\n      mstore\n      0x20\n      add\n      0x00\n      keccak256\n        /* \"contracts/CrowdFunding.sol\":2316:2366  Request storage thisRequest = requests[_requestNo] */\n      swap1\n      pop\n        /* \"contracts/CrowdFunding.sol\":2418:2423  false */\n      0x00\n        /* \"contracts/CrowdFunding.sol\":2384:2423  thisRequest.voters[msg.sender] == false */\n      iszero\n      iszero\n        /* \"contracts/CrowdFunding.sol\":2384:2395  thisRequest */\n      dup2\n        /* \"contracts/CrowdFunding.sol\":2384:2402  thisRequest.voters */\n      0x05\n      add\n        /* \"contracts/CrowdFunding.sol\":2384:2414  thisRequest.voters[msg.sender] */\n      0x00\n        /* \"contracts/CrowdFunding.sol\":2403:2413  msg.sender */\n      caller\n        /* \"contracts/CrowdFunding.sol\":2384:2414  thisRequest.voters[msg.sender] */\n      0xffffffffffffffffffffffffffffffffffffffff\n      and\n      0xffffffffffffffffffffffffffffffffffffffff\n      and\n      dup2\n      mstore\n      0x20\n      add\n      swap1\n      dup2\n      mstore\n      0x20\n      add\n      0x00\n      keccak256\n      0x00\n      swap1\n      sload\n      swap1\n      0x0100\n      exp\n      swap1\n      div\n      0xff\n      and\n        /* \"contracts/CrowdFunding.sol\":2384:2423  thisRequest.voters[msg.sender] == false */\n      iszero\n      iszero\n      eq\n        /* \"contracts/CrowdFunding.sol\":2376:2450  require(thisRequest.voters[msg.sender] == false, \"You have already voted\") */\n      tag_115\n      jumpi\n      mload(0x40)\n      0x08c379a000000000000000000000000000000000000000000000000000000000\n      dup2\n      mstore\n      0x04\n      add\n      tag_116\n      swap1\n      tag_117\n      jump\t// in\n    tag_116:\n      mload(0x40)\n      dup1\n      swap2\n      sub\n      swap1\n      revert\n    tag_115:\n        /* \"contracts/CrowdFunding.sol\":2493:2497  true */\n      0x01\n        /* \"contracts/CrowdFunding.sol\":2460:2471  thisRequest */\n      dup2\n        /* \"contracts/CrowdFunding.sol\":2460:2478  thisRequest.voters */\n      0x05\n      add\n        /* \"contracts/CrowdFunding.sol\":2460:2490  thisRequest.voters[msg.sender] */\n      0x00\n        /* \"contracts/CrowdFunding.sol\":2479:2489  msg.sender */\n      caller\n        /* \"contracts/CrowdFunding.sol\":2460:2490  thisRequest.voters[msg.sender] */\n      0xffffffffffffffffffffffffffffffffffffffff\n      and\n      0xffffffffffffffffffffffffffffffffffffffff\n      and\n      dup2\n      mstore\n      0x20\n      add\n      swap1\n      dup2\n      mstore\n      0x20\n      add\n      0x00\n      keccak256\n      0x00\n        /* \"contracts/CrowdFunding.sol\":2460:2497  thisRequest.voters[msg.sender] = true */\n      0x0100\n      exp\n      dup2\n      sload\n      dup2\n      0xff\n      mul\n      not\n      and\n      swap1\n      dup4\n      iszero\n      iszero\n      mul\n      or\n      swap1\n      sstore\n      pop\n        /* \"contracts/CrowdFunding.sol\":2507:2518  thisRequest */\n      dup1\n        /* \"contracts/CrowdFunding.sol\":2507:2529  thisRequest.noOfVoters */\n      0x04\n      add\n      0x00\n        /* \"contracts/CrowdFunding.sol\":2507:2531  thisRequest.noOfVoters++ */\n      dup2\n      sload\n      dup1\n      swap3\n      swap2\n      swap1\n      tag_118\n      swap1\n      tag_87\n      jump\t// in\n    tag_118:\n      swap2\n      swap1\n      pop\n      sstore\n      pop\n        /* \"contracts/CrowdFunding.sol\":2238:2538  {... */\n      pop\n        /* \"contracts/CrowdFunding.sol\":2193:2538  function voteRequest(uint _requestNo) public {... */\n      pop\n      jump\t// out\n        /* \"contracts/CrowdFunding.sol\":289:317  uint public noOfContributors */\n    tag_48:\n      sload(0x06)\n      dup2\n      jump\t// out\n        /* \"contracts/CrowdFunding.sol\":2545:3002  function makePayment(uint _requestNo) public onlyManager {... */\n    tag_53:\n        /* \"contracts/CrowdFunding.sol\":652:659  manager */\n      0x01\n      0x00\n      swap1\n      sload\n      swap1\n      0x0100\n      exp\n      swap1\n      div\n      0xffffffffffffffffffffffffffffffffffffffff\n      and\n        /* \"contracts/CrowdFunding.sol\":638:659  msg.sender == manager */\n      0xffffffffffffffffffffffffffffffffffffffff\n      and\n        /* \"contracts/CrowdFunding.sol\":638:648  msg.sender */\n      caller\n        /* \"contracts/CrowdFunding.sol\":638:659  msg.sender == manager */\n      0xffffffffffffffffffffffffffffffffffffffff\n      and\n      eq\n        /* \"contracts/CrowdFunding.sol\":630:699  require(msg.sender == manager, \"Only Manager can call this function\") */\n      tag_120\n      jumpi\n      mload(0x40)\n      0x08c379a000000000000000000000000000000000000000000000000000000000\n      dup2\n      mstore\n      0x04\n      add\n      tag_121\n      swap1\n      tag_106\n      jump\t// in\n    tag_121:\n      mload(0x40)\n      dup1\n      swap2\n      sub\n      swap1\n      revert\n    tag_120:\n        /* \"contracts/CrowdFunding.sol\":2635:2641  target */\n      sload(0x04)\n        /* \"contracts/CrowdFunding.sol\":2620:2631  raiseAmount */\n      sload(0x05)\n        /* \"contracts/CrowdFunding.sol\":2620:2641  raiseAmount >= target */\n      lt\n      iszero\n        /* \"contracts/CrowdFunding.sol\":2612:2642  require(raiseAmount >= target) */\n      tag_123\n      jumpi\n      0x00\n      dup1\n      revert\n    tag_123:\n        /* \"contracts/CrowdFunding.sol\":2652:2679  Request storage thisRequest */\n      0x00\n        /* \"contracts/CrowdFunding.sol\":2682:2690  requests */\n      0x07\n        /* \"contracts/CrowdFunding.sol\":2682:2702  requests[_requestNo] */\n      0x00\n        /* \"contracts/CrowdFunding.sol\":2691:2701  _requestNo */\n      dup4\n        /* \"contracts/CrowdFunding.sol\":2682:2702  requests[_requestNo] */\n      dup2\n      mstore\n      0x20\n      add\n      swap1\n      dup2\n      mstore\n      0x20\n      add\n      0x00\n      keccak256\n        /* \"contracts/CrowdFunding.sol\":2652:2702  Request storage thisRequest = requests[_requestNo] */\n      swap1\n      pop\n        /* \"contracts/CrowdFunding.sol\":2747:2752  false */\n      0x00\n        /* \"contracts/CrowdFunding.sol\":2720:2752  thisRequest.isCompleted == false */\n      iszero\n      iszero\n        /* \"contracts/CrowdFunding.sol\":2720:2731  thisRequest */\n      dup2\n        /* \"contracts/CrowdFunding.sol\":2720:2743  thisRequest.isCompleted */\n      0x03\n      add\n      0x00\n      swap1\n      sload\n      swap1\n      0x0100\n      exp\n      swap1\n      div\n      0xff\n      and\n        /* \"contracts/CrowdFunding.sol\":2720:2752  thisRequest.isCompleted == false */\n      iszero\n      iszero\n      eq\n        /* \"contracts/CrowdFunding.sol\":2712:2787  require(thisRequest.isCompleted == false, \"Already Distributed the amount\") */\n      tag_124\n      jumpi\n      mload(0x40)\n      0x08c379a000000000000000000000000000000000000000000000000000000000\n      dup2\n      mstore\n      0x04\n      add\n      tag_125\n      swap1\n      tag_126\n      jump\t// in\n    tag_125:\n      mload(0x40)\n      dup1\n      swap2\n      sub\n      swap1\n      revert\n    tag_124:\n        /* \"contracts/CrowdFunding.sol\":2847:2848  2 */\n      0x02\n        /* \"contracts/CrowdFunding.sol\":2830:2846  noOfContributors */\n      sload(0x06)\n        /* \"contracts/CrowdFunding.sol\":2830:2848  noOfContributors/2 */\n      tag_127\n      swap2\n      swap1\n      tag_128\n      jump\t// in\n    tag_127:\n        /* \"contracts/CrowdFunding.sol\":2805:2816  thisRequest */\n      dup2\n        /* \"contracts/CrowdFunding.sol\":2805:2827  thisRequest.noOfVoters */\n      0x04\n      add\n      sload\n        /* \"contracts/CrowdFunding.sol\":2805:2848  thisRequest.noOfVoters > noOfContributors/2 */\n      gt\n        /* \"contracts/CrowdFunding.sol\":2797:2895  require(thisRequest.noOfVoters > noOfContributors/2, \"Majority Support mark has not been crossed\") */\n      tag_129\n      jumpi\n      mload(0x40)\n      0x08c379a000000000000000000000000000000000000000000000000000000000\n      dup2\n      mstore\n      0x04\n      add\n      tag_130\n      swap1\n      tag_131\n      jump\t// in\n    tag_130:\n      mload(0x40)\n      dup1\n      swap2\n      sub\n      swap1\n      revert\n    tag_129:\n        /* \"contracts/CrowdFunding.sol\":2906:2917  thisRequest */\n      dup1\n        /* \"contracts/CrowdFunding.sol\":2906:2927  thisRequest.recipient */\n      0x01\n      add\n      0x00\n      swap1\n      sload\n      swap1\n      0x0100\n      exp\n      swap1\n      div\n      0xffffffffffffffffffffffffffffffffffffffff\n      and\n        /* \"contracts/CrowdFunding.sol\":2906:2936  thisRequest.recipient.transfer */\n      0xffffffffffffffffffffffffffffffffffffffff\n      and\n        /* \"contracts/CrowdFunding.sol\":2906:2955  thisRequest.recipient.transfer(thisRequest.value) */\n      0x08fc\n        /* \"contracts/CrowdFunding.sol\":2937:2948  thisRequest */\n      dup3\n        /* \"contracts/CrowdFunding.sol\":2937:2954  thisRequest.value */\n      0x02\n      add\n      sload\n        /* \"contracts/CrowdFunding.sol\":2906:2955  thisRequest.recipient.transfer(thisRequest.value) */\n      swap1\n      dup2\n      iszero\n      mul\n      swap1\n      mload(0x40)\n      0x00\n      mload(0x40)\n      dup1\n      dup4\n      sub\n      dup2\n      dup6\n      dup9\n      dup9\n      call\n      swap4\n      pop\n      pop\n      pop\n      pop\n      iszero\n      dup1\n      iszero\n      tag_133\n      jumpi\n      returndatasize\n      0x00\n      dup1\n      returndatacopy\n      revert(0x00, returndatasize)\n    tag_133:\n      pop\n        /* \"contracts/CrowdFunding.sol\":2991:2995  true */\n      0x01\n        /* \"contracts/CrowdFunding.sol\":2965:2976  thisRequest */\n      dup2\n        /* \"contracts/CrowdFunding.sol\":2965:2988  thisRequest.isCompleted */\n      0x03\n      add\n      0x00\n        /* \"contracts/CrowdFunding.sol\":2965:2995  thisRequest.isCompleted = true */\n      0x0100\n      exp\n      dup2\n      sload\n      dup2\n      0xff\n      mul\n      not\n      and\n      swap1\n      dup4\n      iszero\n      iszero\n      mul\n      or\n      swap1\n      sstore\n      pop\n        /* \"contracts/CrowdFunding.sol\":2602:3002  {... */\n      pop\n        /* \"contracts/CrowdFunding.sol\":2545:3002  function makePayment(uint _requestNo) public onlyManager {... */\n      pop\n      jump\t// out\n        /* \"contracts/CrowdFunding.sol\":1286:1387  function getContractBalance() public view returns(uint) {... */\n    tag_56:\n        /* \"contracts/CrowdFunding.sol\":1336:1340  uint */\n      0x00\n        /* \"contracts/CrowdFunding.sol\":1359:1380  address(this).balance */\n      selfbalance\n        /* \"contracts/CrowdFunding.sol\":1352:1380  return address(this).balance */\n      swap1\n      pop\n        /* \"contracts/CrowdFunding.sol\":1286:1387  function getContractBalance() public view returns(uint) {... */\n      swap1\n      jump\t// out\n        /* \"contracts/CrowdFunding.sol\":177:204  uint public minContribution */\n    tag_60:\n      sload(0x02)\n      dup2\n      jump\t// out\n        /* \"contracts/CrowdFunding.sol\":210:230  uint public deadLine */\n    tag_64:\n      sload(0x03)\n      dup2\n      jump\t// out\n        /* \"contracts/CrowdFunding.sol\":566:590  uint public noOfRequests */\n    tag_68:\n      sload(0x08)\n      dup2\n      jump\t// out\n        /* \"contracts/CrowdFunding.sol\":236:254  uint public target */\n    tag_72:\n      sload(0x04)\n      dup2\n      jump\t// out\n        /* \"contracts/CrowdFunding.sol\":260:283  uint public raiseAmount */\n    tag_76:\n      sload(0x05)\n      dup2\n      jump\t// out\n    tag_110:\n      dup3\n      dup1\n      sload\n      tag_135\n      swap1\n      tag_136\n      jump\t// in\n    tag_135:\n      swap1\n      0x00\n      mstore\n      keccak256(0x00, 0x20)\n      swap1\n      0x1f\n      add\n      0x20\n      swap1\n      div\n      dup2\n      add\n      swap3\n      dup3\n      tag_138\n      jumpi\n      0x00\n      dup6\n      sstore\n      jump(tag_137)\n    tag_138:\n      dup3\n      0x1f\n      lt\n      tag_139\n      jumpi\n      dup1\n      mload\n      not(0xff)\n      and\n      dup4\n      dup1\n      add\n      or\n      dup6\n      sstore\n      jump(tag_137)\n    tag_139:\n      dup3\n      dup1\n      add\n      0x01\n      add\n      dup6\n      sstore\n      dup3\n      iszero\n      tag_137\n      jumpi\n      swap2\n      dup3\n      add\n    tag_140:\n      dup3\n      dup2\n      gt\n      iszero\n      tag_141\n      jumpi\n      dup3\n      mload\n      dup3\n      sstore\n      swap2\n      0x20\n      add\n      swap2\n      swap1\n      0x01\n      add\n      swap1\n      jump(tag_140)\n    tag_141:\n    tag_137:\n      pop\n      swap1\n      pop\n      tag_142\n      swap2\n      swap1\n      tag_143\n      jump\t// in\n    tag_142:\n      pop\n      swap1\n      jump\t// out\n    tag_143:\n    tag_144:\n      dup1\n      dup3\n      gt\n      iszero\n      tag_145\n      jumpi\n      0x00\n      dup2\n      0x00\n      swap1\n      sstore\n      pop\n      0x01\n      add\n      jump(tag_144)\n    tag_145:\n      pop\n      swap1\n      jump\t// out\n        /* \"#utility.yul\":7:419   */\n    tag_147:\n        /* \"#utility.yul\":85:90   */\n      0x00\n        /* \"#utility.yul\":110:176   */\n      tag_149\n        /* \"#utility.yul\":126:175   */\n      tag_150\n        /* \"#utility.yul\":168:174   */\n      dup5\n        /* \"#utility.yul\":126:175   */\n      tag_151\n      jump\t// in\n    tag_150:\n        /* \"#utility.yul\":110:176   */\n      tag_152\n      jump\t// in\n    tag_149:\n        /* \"#utility.yul\":101:176   */\n      swap1\n      pop\n        /* \"#utility.yul\":199:205   */\n      dup3\n        /* \"#utility.yul\":192:197   */\n      dup2\n        /* \"#utility.yul\":185:206   */\n      mstore\n        /* \"#utility.yul\":237:241   */\n      0x20\n        /* \"#utility.yul\":230:235   */\n      dup2\n        /* \"#utility.yul\":226:242   */\n      add\n        /* \"#utility.yul\":275:278   */\n      dup5\n        /* \"#utility.yul\":266:272   */\n      dup5\n        /* \"#utility.yul\":261:264   */\n      dup5\n        /* \"#utility.yul\":257:273   */\n      add\n        /* \"#utility.yul\":254:279   */\n      gt\n        /* \"#utility.yul\":251:363   */\n      iszero\n      tag_153\n      jumpi\n        /* \"#utility.yul\":282:361   */\n      tag_154\n      tag_155\n      jump\t// in\n    tag_154:\n        /* \"#utility.yul\":251:363   */\n    tag_153:\n        /* \"#utility.yul\":372:413   */\n      tag_156\n        /* \"#utility.yul\":406:412   */\n      dup5\n        /* \"#utility.yul\":401:404   */\n      dup3\n        /* \"#utility.yul\":396:399   */\n      dup6\n        /* \"#utility.yul\":372:413   */\n      tag_157\n      jump\t// in\n    tag_156:\n        /* \"#utility.yul\":91:419   */\n      pop\n        /* \"#utility.yul\":7:419   */\n      swap4\n      swap3\n      pop\n      pop\n      pop\n      jump\t// out\n        /* \"#utility.yul\":425:564   */\n    tag_158:\n        /* \"#utility.yul\":471:476   */\n      0x00\n        /* \"#utility.yul\":509:515   */\n      dup2\n        /* \"#utility.yul\":496:516   */\n      calldataload\n        /* \"#utility.yul\":487:516   */\n      swap1\n      pop\n        /* \"#utility.yul\":525:558   */\n      tag_160\n        /* \"#utility.yul\":552:557   */\n      dup2\n        /* \"#utility.yul\":525:558   */\n      tag_161\n      jump\t// in\n    tag_160:\n        /* \"#utility.yul\":425:564   */\n      swap3\n      swap2\n      pop\n      pop\n      jump\t// out\n        /* \"#utility.yul\":570:725   */\n    tag_162:\n        /* \"#utility.yul\":624:629   */\n      0x00\n        /* \"#utility.yul\":662:668   */\n      dup2\n        /* \"#utility.yul\":649:669   */\n      calldataload\n        /* \"#utility.yul\":640:669   */\n      swap1\n      pop\n        /* \"#utility.yul\":678:719   */\n      tag_164\n        /* \"#utility.yul\":713:718   */\n      dup2\n        /* \"#utility.yul\":678:719   */\n      tag_165\n      jump\t// in\n    tag_164:\n        /* \"#utility.yul\":570:725   */\n      swap3\n      swap2\n      pop\n      pop\n      jump\t// out\n        /* \"#utility.yul\":745:1085   */\n    tag_166:\n        /* \"#utility.yul\":801:806   */\n      0x00\n        /* \"#utility.yul\":850:853   */\n      dup3\n        /* \"#utility.yul\":843:847   */\n      0x1f\n        /* \"#utility.yul\":835:841   */\n      dup4\n        /* \"#utility.yul\":831:848   */\n      add\n        /* \"#utility.yul\":827:854   */\n      slt\n        /* \"#utility.yul\":817:939   */\n      tag_168\n      jumpi\n        /* \"#utility.yul\":858:937   */\n      tag_169\n      tag_170\n      jump\t// in\n    tag_169:\n        /* \"#utility.yul\":817:939   */\n    tag_168:\n        /* \"#utility.yul\":975:981   */\n      dup2\n        /* \"#utility.yul\":962:982   */\n      calldataload\n        /* \"#utility.yul\":1000:1079   */\n      tag_171\n        /* \"#utility.yul\":1075:1078   */\n      dup5\n        /* \"#utility.yul\":1067:1073   */\n      dup3\n        /* \"#utility.yul\":1060:1064   */\n      0x20\n        /* \"#utility.yul\":1052:1058   */\n      dup7\n        /* \"#utility.yul\":1048:1065   */\n      add\n        /* \"#utility.yul\":1000:1079   */\n      tag_147\n      jump\t// in\n    tag_171:\n        /* \"#utility.yul\":991:1079   */\n      swap2\n      pop\n        /* \"#utility.yul\":807:1085   */\n      pop\n        /* \"#utility.yul\":745:1085   */\n      swap3\n      swap2\n      pop\n      pop\n      jump\t// out\n        /* \"#utility.yul\":1091:1230   */\n    tag_172:\n        /* \"#utility.yul\":1137:1142   */\n      0x00\n        /* \"#utility.yul\":1175:1181   */\n      dup2\n        /* \"#utility.yul\":1162:1182   */\n      calldataload\n        /* \"#utility.yul\":1153:1182   */\n      swap1\n      pop\n        /* \"#utility.yul\":1191:1224   */\n      tag_174\n        /* \"#utility.yul\":1218:1223   */\n      dup2\n        /* \"#utility.yul\":1191:1224   */\n      tag_175\n      jump\t// in\n    tag_174:\n        /* \"#utility.yul\":1091:1230   */\n      swap3\n      swap2\n      pop\n      pop\n      jump\t// out\n        /* \"#utility.yul\":1236:1565   */\n    tag_32:\n        /* \"#utility.yul\":1295:1301   */\n      0x00\n        /* \"#utility.yul\":1344:1346   */\n      0x20\n        /* \"#utility.yul\":1332:1341   */\n      dup3\n        /* \"#utility.yul\":1323:1330   */\n      dup5\n        /* \"#utility.yul\":1319:1342   */\n      sub\n        /* \"#utility.yul\":1315:1347   */\n      slt\n        /* \"#utility.yul\":1312:1431   */\n      iszero\n      tag_177\n      jumpi\n        /* \"#utility.yul\":1350:1429   */\n      tag_178\n      tag_179\n      jump\t// in\n    tag_178:\n        /* \"#utility.yul\":1312:1431   */\n    tag_177:\n        /* \"#utility.yul\":1470:1471   */\n      0x00\n        /* \"#utility.yul\":1495:1548   */\n      tag_180\n        /* \"#utility.yul\":1540:1547   */\n      dup5\n        /* \"#utility.yul\":1531:1537   */\n      dup3\n        /* \"#utility.yul\":1520:1529   */\n      dup6\n        /* \"#utility.yul\":1516:1538   */\n      add\n        /* \"#utility.yul\":1495:1548   */\n      tag_158\n      jump\t// in\n    tag_180:\n        /* \"#utility.yul\":1485:1548   */\n      swap2\n      pop\n        /* \"#utility.yul\":1441:1558   */\n      pop\n        /* \"#utility.yul\":1236:1565   */\n      swap3\n      swap2\n      pop\n      pop\n      jump\t// out\n        /* \"#utility.yul\":1571:2386   */\n    tag_27:\n        /* \"#utility.yul\":1666:1672   */\n      0x00\n        /* \"#utility.yul\":1674:1680   */\n      dup1\n        /* \"#utility.yul\":1682:1688   */\n      0x00\n        /* \"#utility.yul\":1731:1733   */\n      0x60\n        /* \"#utility.yul\":1719:1728   */\n      dup5\n        /* \"#utility.yul\":1710:1717   */\n      dup7\n        /* \"#utility.yul\":1706:1729   */\n      sub\n        /* \"#utility.yul\":1702:1734   */\n      slt\n        /* \"#utility.yul\":1699:1818   */\n      iszero\n      tag_182\n      jumpi\n        /* \"#utility.yul\":1737:1816   */\n      tag_183\n      tag_179\n      jump\t// in\n    tag_183:\n        /* \"#utility.yul\":1699:1818   */\n    tag_182:\n        /* \"#utility.yul\":1885:1886   */\n      0x00\n        /* \"#utility.yul\":1874:1883   */\n      dup5\n        /* \"#utility.yul\":1870:1887   */\n      add\n        /* \"#utility.yul\":1857:1888   */\n      calldataload\n        /* \"#utility.yul\":1915:1933   */\n      0xffffffffffffffff\n        /* \"#utility.yul\":1907:1913   */\n      dup2\n        /* \"#utility.yul\":1904:1934   */\n      gt\n        /* \"#utility.yul\":1901:2018   */\n      iszero\n      tag_184\n      jumpi\n        /* \"#utility.yul\":1937:2016   */\n      tag_185\n      tag_186\n      jump\t// in\n    tag_185:\n        /* \"#utility.yul\":1901:2018   */\n    tag_184:\n        /* \"#utility.yul\":2042:2105   */\n      tag_187\n        /* \"#utility.yul\":2097:2104   */\n      dup7\n        /* \"#utility.yul\":2088:2094   */\n      dup3\n        /* \"#utility.yul\":2077:2086   */\n      dup8\n        /* \"#utility.yul\":2073:2095   */\n      add\n        /* \"#utility.yul\":2042:2105   */\n      tag_166\n      jump\t// in\n    tag_187:\n        /* \"#utility.yul\":2032:2105   */\n      swap4\n      pop\n        /* \"#utility.yul\":1828:2115   */\n      pop\n        /* \"#utility.yul\":2154:2156   */\n      0x20\n        /* \"#utility.yul\":2180:2241   */\n      tag_188\n        /* \"#utility.yul\":2233:2240   */\n      dup7\n        /* \"#utility.yul\":2224:2230   */\n      dup3\n        /* \"#utility.yul\":2213:2222   */\n      dup8\n        /* \"#utility.yul\":2209:2231   */\n      add\n        /* \"#utility.yul\":2180:2241   */\n      tag_162\n      jump\t// in\n    tag_188:\n        /* \"#utility.yul\":2170:2241   */\n      swap3\n      pop\n        /* \"#utility.yul\":2125:2251   */\n      pop\n        /* \"#utility.yul\":2290:2292   */\n      0x40\n        /* \"#utility.yul\":2316:2369   */\n      tag_189\n        /* \"#utility.yul\":2361:2368   */\n      dup7\n        /* \"#utility.yul\":2352:2358   */\n      dup3\n        /* \"#utility.yul\":2341:2350   */\n      dup8\n        /* \"#utility.yul\":2337:2359   */\n      add\n        /* \"#utility.yul\":2316:2369   */\n      tag_172\n      jump\t// in\n    tag_189:\n        /* \"#utility.yul\":2306:2369   */\n      swap2\n      pop\n        /* \"#utility.yul\":2261:2379   */\n      pop\n        /* \"#utility.yul\":1571:2386   */\n      swap3\n      pop\n      swap3\n      pop\n      swap3\n      jump\t// out\n        /* \"#utility.yul\":2392:2721   */\n    tag_44:\n        /* \"#utility.yul\":2451:2457   */\n      0x00\n        /* \"#utility.yul\":2500:2502   */\n      0x20\n        /* \"#utility.yul\":2488:2497   */\n      dup3\n        /* \"#utility.yul\":2479:2486   */\n      dup5\n        /* \"#utility.yul\":2475:2498   */\n      sub\n        /* \"#utility.yul\":2471:2503   */\n      slt\n        /* \"#utility.yul\":2468:2587   */\n      iszero\n      tag_191\n      jumpi\n        /* \"#utility.yul\":2506:2585   */\n      tag_192\n      tag_179\n      jump\t// in\n    tag_192:\n        /* \"#utility.yul\":2468:2587   */\n    tag_191:\n        /* \"#utility.yul\":2626:2627   */\n      0x00\n        /* \"#utility.yul\":2651:2704   */\n      tag_193\n        /* \"#utility.yul\":2696:2703   */\n      dup5\n        /* \"#utility.yul\":2687:2693   */\n      dup3\n        /* \"#utility.yul\":2676:2685   */\n      dup6\n        /* \"#utility.yul\":2672:2694   */\n      add\n        /* \"#utility.yul\":2651:2704   */\n      tag_172\n      jump\t// in\n    tag_193:\n        /* \"#utility.yul\":2641:2704   */\n      swap2\n      pop\n        /* \"#utility.yul\":2597:2714   */\n      pop\n        /* \"#utility.yul\":2392:2721   */\n      swap3\n      swap2\n      pop\n      pop\n      jump\t// out\n        /* \"#utility.yul\":2727:2845   */\n    tag_194:\n        /* \"#utility.yul\":2814:2838   */\n      tag_196\n        /* \"#utility.yul\":2832:2837   */\n      dup2\n        /* \"#utility.yul\":2814:2838   */\n      tag_197\n      jump\t// in\n    tag_196:\n        /* \"#utility.yul\":2809:2812   */\n      dup3\n        /* \"#utility.yul\":2802:2839   */\n      mstore\n        /* \"#utility.yul\":2727:2845   */\n      pop\n      pop\n      jump\t// out\n        /* \"#utility.yul\":2851:3217   */\n    tag_198:\n        /* \"#utility.yul\":2993:2996   */\n      0x00\n        /* \"#utility.yul\":3014:3081   */\n      tag_200\n        /* \"#utility.yul\":3078:3080   */\n      0x2a\n        /* \"#utility.yul\":3073:3076   */\n      dup4\n        /* \"#utility.yul\":3014:3081   */\n      tag_201\n      jump\t// in\n    tag_200:\n        /* \"#utility.yul\":3007:3081   */\n      swap2\n      pop\n        /* \"#utility.yul\":3090:3183   */\n      tag_202\n        /* \"#utility.yul\":3179:3182   */\n      dup3\n        /* \"#utility.yul\":3090:3183   */\n      tag_203\n      jump\t// in\n    tag_202:\n        /* \"#utility.yul\":3208:3210   */\n      0x40\n        /* \"#utility.yul\":3203:3206   */\n      dup3\n        /* \"#utility.yul\":3199:3211   */\n      add\n        /* \"#utility.yul\":3192:3211   */\n      swap1\n      pop\n        /* \"#utility.yul\":2851:3217   */\n      swap2\n      swap1\n      pop\n      jump\t// out\n        /* \"#utility.yul\":3223:3589   */\n    tag_204:\n        /* \"#utility.yul\":3365:3368   */\n      0x00\n        /* \"#utility.yul\":3386:3453   */\n      tag_206\n        /* \"#utility.yul\":3450:3452   */\n      0x20\n        /* \"#utility.yul\":3445:3448   */\n      dup4\n        /* \"#utility.yul\":3386:3453   */\n      tag_201\n      jump\t// in\n    tag_206:\n        /* \"#utility.yul\":3379:3453   */\n      swap2\n      pop\n        /* \"#utility.yul\":3462:3555   */\n      tag_207\n        /* \"#utility.yul\":3551:3554   */\n      dup3\n        /* \"#utility.yul\":3462:3555   */\n      tag_208\n      jump\t// in\n    tag_207:\n        /* \"#utility.yul\":3580:3582   */\n      0x20\n        /* \"#utility.yul\":3575:3578   */\n      dup3\n        /* \"#utility.yul\":3571:3583   */\n      add\n        /* \"#utility.yul\":3564:3583   */\n      swap1\n      pop\n        /* \"#utility.yul\":3223:3589   */\n      swap2\n      swap1\n      pop\n      jump\t// out\n        /* \"#utility.yul\":3595:3961   */\n    tag_209:\n        /* \"#utility.yul\":3737:3740   */\n      0x00\n        /* \"#utility.yul\":3758:3825   */\n      tag_211\n        /* \"#utility.yul\":3822:3824   */\n      0x13\n        /* \"#utility.yul\":3817:3820   */\n      dup4\n        /* \"#utility.yul\":3758:3825   */\n      tag_201\n      jump\t// in\n    tag_211:\n        /* \"#utility.yul\":3751:3825   */\n      swap2\n      pop\n        /* \"#utility.yul\":3834:3927   */\n      tag_212\n        /* \"#utility.yul\":3923:3926   */\n      dup3\n        /* \"#utility.yul\":3834:3927   */\n      tag_213\n      jump\t// in\n    tag_212:\n        /* \"#utility.yul\":3952:3954   */\n      0x20\n        /* \"#utility.yul\":3947:3950   */\n      dup3\n        /* \"#utility.yul\":3943:3955   */\n      add\n        /* \"#utility.yul\":3936:3955   */\n      swap1\n      pop\n        /* \"#utility.yul\":3595:3961   */\n      swap2\n      swap1\n      pop\n      jump\t// out\n        /* \"#utility.yul\":3967:4333   */\n    tag_214:\n        /* \"#utility.yul\":4109:4112   */\n      0x00\n        /* \"#utility.yul\":4130:4197   */\n      tag_216\n        /* \"#utility.yul\":4194:4196   */\n      0x23\n        /* \"#utility.yul\":4189:4192   */\n      dup4\n        /* \"#utility.yul\":4130:4197   */\n      tag_201\n      jump\t// in\n    tag_216:\n        /* \"#utility.yul\":4123:4197   */\n      swap2\n      pop\n        /* \"#utility.yul\":4206:4299   */\n      tag_217\n        /* \"#utility.yul\":4295:4298   */\n      dup3\n        /* \"#utility.yul\":4206:4299   */\n      tag_218\n      jump\t// in\n    tag_217:\n        /* \"#utility.yul\":4324:4326   */\n      0x40\n        /* \"#utility.yul\":4319:4322   */\n      dup3\n        /* \"#utility.yul\":4315:4327   */\n      add\n        /* \"#utility.yul\":4308:4327   */\n      swap1\n      pop\n        /* \"#utility.yul\":3967:4333   */\n      swap2\n      swap1\n      pop\n      jump\t// out\n        /* \"#utility.yul\":4339:4705   */\n    tag_219:\n        /* \"#utility.yul\":4481:4484   */\n      0x00\n        /* \"#utility.yul\":4502:4569   */\n      tag_221\n        /* \"#utility.yul\":4566:4568   */\n      0x11\n        /* \"#utility.yul\":4561:4564   */\n      dup4\n        /* \"#utility.yul\":4502:4569   */\n      tag_201\n      jump\t// in\n    tag_221:\n        /* \"#utility.yul\":4495:4569   */\n      swap2\n      pop\n        /* \"#utility.yul\":4578:4671   */\n      tag_222\n        /* \"#utility.yul\":4667:4670   */\n      dup3\n        /* \"#utility.yul\":4578:4671   */\n      tag_223\n      jump\t// in\n    tag_222:\n        /* \"#utility.yul\":4696:4698   */\n      0x20\n        /* \"#utility.yul\":4691:4694   */\n      dup3\n        /* \"#utility.yul\":4687:4699   */\n      add\n        /* \"#utility.yul\":4680:4699   */\n      swap1\n      pop\n        /* \"#utility.yul\":4339:4705   */\n      swap2\n      swap1\n      pop\n      jump\t// out\n        /* \"#utility.yul\":4711:5077   */\n    tag_224:\n        /* \"#utility.yul\":4853:4856   */\n      0x00\n        /* \"#utility.yul\":4874:4941   */\n      tag_226\n        /* \"#utility.yul\":4938:4940   */\n      0x1e\n        /* \"#utility.yul\":4933:4936   */\n      dup4\n        /* \"#utility.yul\":4874:4941   */\n      tag_201\n      jump\t// in\n    tag_226:\n        /* \"#utility.yul\":4867:4941   */\n      swap2\n      pop\n        /* \"#utility.yul\":4950:5043   */\n      tag_227\n        /* \"#utility.yul\":5039:5042   */\n      dup3\n        /* \"#utility.yul\":4950:5043   */\n      tag_228\n      jump\t// in\n    tag_227:\n        /* \"#utility.yul\":5068:5070   */\n      0x20\n        /* \"#utility.yul\":5063:5066   */\n      dup3\n        /* \"#utility.yul\":5059:5071   */\n      add\n        /* \"#utility.yul\":5052:5071   */\n      swap1\n      pop\n        /* \"#utility.yul\":4711:5077   */\n      swap2\n      swap1\n      pop\n      jump\t// out\n        /* \"#utility.yul\":5083:5449   */\n    tag_229:\n        /* \"#utility.yul\":5225:5228   */\n      0x00\n        /* \"#utility.yul\":5246:5313   */\n      tag_231\n        /* \"#utility.yul\":5310:5312   */\n      0x17\n        /* \"#utility.yul\":5305:5308   */\n      dup4\n        /* \"#utility.yul\":5246:5313   */\n      tag_201\n      jump\t// in\n    tag_231:\n        /* \"#utility.yul\":5239:5313   */\n      swap2\n      pop\n        /* \"#utility.yul\":5322:5415   */\n      tag_232\n        /* \"#utility.yul\":5411:5414   */\n      dup3\n        /* \"#utility.yul\":5322:5415   */\n      tag_233\n      jump\t// in\n    tag_232:\n        /* \"#utility.yul\":5440:5442   */\n      0x20\n        /* \"#utility.yul\":5435:5438   */\n      dup3\n        /* \"#utility.yul\":5431:5443   */\n      add\n        /* \"#utility.yul\":5424:5443   */\n      swap1\n      pop\n        /* \"#utility.yul\":5083:5449   */\n      swap2\n      swap1\n      pop\n      jump\t// out\n        /* \"#utility.yul\":5455:5821   */\n    tag_234:\n        /* \"#utility.yul\":5597:5600   */\n      0x00\n        /* \"#utility.yul\":5618:5685   */\n      tag_236\n        /* \"#utility.yul\":5682:5684   */\n      0x1d\n        /* \"#utility.yul\":5677:5680   */\n      dup4\n        /* \"#utility.yul\":5618:5685   */\n      tag_201\n      jump\t// in\n    tag_236:\n        /* \"#utility.yul\":5611:5685   */\n      swap2\n      pop\n        /* \"#utility.yul\":5694:5787   */\n      tag_237\n        /* \"#utility.yul\":5783:5786   */\n      dup3\n        /* \"#utility.yul\":5694:5787   */\n      tag_238\n      jump\t// in\n    tag_237:\n        /* \"#utility.yul\":5812:5814   */\n      0x20\n        /* \"#utility.yul\":5807:5810   */\n      dup3\n        /* \"#utility.yul\":5803:5815   */\n      add\n        /* \"#utility.yul\":5796:5815   */\n      swap1\n      pop\n        /* \"#utility.yul\":5455:5821   */\n      swap2\n      swap1\n      pop\n      jump\t// out\n        /* \"#utility.yul\":5827:6193   */\n    tag_239:\n        /* \"#utility.yul\":5969:5972   */\n      0x00\n        /* \"#utility.yul\":5990:6057   */\n      tag_241\n        /* \"#utility.yul\":6054:6056   */\n      0x12\n        /* \"#utility.yul\":6049:6052   */\n      dup4\n        /* \"#utility.yul\":5990:6057   */\n      tag_201\n      jump\t// in\n    tag_241:\n        /* \"#utility.yul\":5983:6057   */\n      swap2\n      pop\n        /* \"#utility.yul\":6066:6159   */\n      tag_242\n        /* \"#utility.yul\":6155:6158   */\n      dup3\n        /* \"#utility.yul\":6066:6159   */\n      tag_243\n      jump\t// in\n    tag_242:\n        /* \"#utility.yul\":6184:6186   */\n      0x20\n        /* \"#utility.yul\":6179:6182   */\n      dup3\n        /* \"#utility.yul\":6175:6187   */\n      add\n        /* \"#utility.yul\":6168:6187   */\n      swap1\n      pop\n        /* \"#utility.yul\":5827:6193   */\n      swap2\n      swap1\n      pop\n      jump\t// out\n        /* \"#utility.yul\":6199:6565   */\n    tag_244:\n        /* \"#utility.yul\":6341:6344   */\n      0x00\n        /* \"#utility.yul\":6362:6429   */\n      tag_246\n        /* \"#utility.yul\":6426:6428   */\n      0x16\n        /* \"#utility.yul\":6421:6424   */\n      dup4\n        /* \"#utility.yul\":6362:6429   */\n      tag_201\n      jump\t// in\n    tag_246:\n        /* \"#utility.yul\":6355:6429   */\n      swap2\n      pop\n        /* \"#utility.yul\":6438:6531   */\n      tag_247\n        /* \"#utility.yul\":6527:6530   */\n      dup3\n        /* \"#utility.yul\":6438:6531   */\n      tag_248\n      jump\t// in\n    tag_247:\n        /* \"#utility.yul\":6556:6558   */\n      0x20\n        /* \"#utility.yul\":6551:6554   */\n      dup3\n        /* \"#utility.yul\":6547:6559   */\n      add\n        /* \"#utility.yul\":6540:6559   */\n      swap1\n      pop\n        /* \"#utility.yul\":6199:6565   */\n      swap2\n      swap1\n      pop\n      jump\t// out\n        /* \"#utility.yul\":6571:6689   */\n    tag_249:\n        /* \"#utility.yul\":6658:6682   */\n      tag_251\n        /* \"#utility.yul\":6676:6681   */\n      dup2\n        /* \"#utility.yul\":6658:6682   */\n      tag_252\n      jump\t// in\n    tag_251:\n        /* \"#utility.yul\":6653:6656   */\n      dup3\n        /* \"#utility.yul\":6646:6683   */\n      mstore\n        /* \"#utility.yul\":6571:6689   */\n      pop\n      pop\n      jump\t// out\n        /* \"#utility.yul\":6695:6917   */\n    tag_40:\n        /* \"#utility.yul\":6788:6792   */\n      0x00\n        /* \"#utility.yul\":6826:6828   */\n      0x20\n        /* \"#utility.yul\":6815:6824   */\n      dup3\n        /* \"#utility.yul\":6811:6829   */\n      add\n        /* \"#utility.yul\":6803:6829   */\n      swap1\n      pop\n        /* \"#utility.yul\":6839:6910   */\n      tag_254\n        /* \"#utility.yul\":6907:6908   */\n      0x00\n        /* \"#utility.yul\":6896:6905   */\n      dup4\n        /* \"#utility.yul\":6892:6909   */\n      add\n        /* \"#utility.yul\":6883:6889   */\n      dup5\n        /* \"#utility.yul\":6839:6910   */\n      tag_194\n      jump\t// in\n    tag_254:\n        /* \"#utility.yul\":6695:6917   */\n      swap3\n      swap2\n      pop\n      pop\n      jump\t// out\n        /* \"#utility.yul\":6923:7342   */\n    tag_131:\n        /* \"#utility.yul\":7089:7093   */\n      0x00\n        /* \"#utility.yul\":7127:7129   */\n      0x20\n        /* \"#utility.yul\":7116:7125   */\n      dup3\n        /* \"#utility.yul\":7112:7130   */\n      add\n        /* \"#utility.yul\":7104:7130   */\n      swap1\n      pop\n        /* \"#utility.yul\":7176:7185   */\n      dup2\n        /* \"#utility.yul\":7170:7174   */\n      dup2\n        /* \"#utility.yul\":7166:7186   */\n      sub\n        /* \"#utility.yul\":7162:7163   */\n      0x00\n        /* \"#utility.yul\":7151:7160   */\n      dup4\n        /* \"#utility.yul\":7147:7164   */\n      add\n        /* \"#utility.yul\":7140:7187   */\n      mstore\n        /* \"#utility.yul\":7204:7335   */\n      tag_256\n        /* \"#utility.yul\":7330:7334   */\n      dup2\n        /* \"#utility.yul\":7204:7335   */\n      tag_198\n      jump\t// in\n    tag_256:\n        /* \"#utility.yul\":7196:7335   */\n      swap1\n      pop\n        /* \"#utility.yul\":6923:7342   */\n      swap2\n      swap1\n      pop\n      jump\t// out\n        /* \"#utility.yul\":7348:7767   */\n    tag_84:\n        /* \"#utility.yul\":7514:7518   */\n      0x00\n        /* \"#utility.yul\":7552:7554   */\n      0x20\n        /* \"#utility.yul\":7541:7550   */\n      dup3\n        /* \"#utility.yul\":7537:7555   */\n      add\n        /* \"#utility.yul\":7529:7555   */\n      swap1\n      pop\n        /* \"#utility.yul\":7601:7610   */\n      dup2\n        /* \"#utility.yul\":7595:7599   */\n      dup2\n        /* \"#utility.yul\":7591:7611   */\n      sub\n        /* \"#utility.yul\":7587:7588   */\n      0x00\n        /* \"#utility.yul\":7576:7585   */\n      dup4\n        /* \"#utility.yul\":7572:7589   */\n      add\n        /* \"#utility.yul\":7565:7612   */\n      mstore\n        /* \"#utility.yul\":7629:7760   */\n      tag_258\n        /* \"#utility.yul\":7755:7759   */\n      dup2\n        /* \"#utility.yul\":7629:7760   */\n      tag_204\n      jump\t// in\n    tag_258:\n        /* \"#utility.yul\":7621:7760   */\n      swap1\n      pop\n        /* \"#utility.yul\":7348:7767   */\n      swap2\n      swap1\n      pop\n      jump\t// out\n        /* \"#utility.yul\":7773:8192   */\n    tag_81:\n        /* \"#utility.yul\":7939:7943   */\n      0x00\n        /* \"#utility.yul\":7977:7979   */\n      0x20\n        /* \"#utility.yul\":7966:7975   */\n      dup3\n        /* \"#utility.yul\":7962:7980   */\n      add\n        /* \"#utility.yul\":7954:7980   */\n      swap1\n      pop\n        /* \"#utility.yul\":8026:8035   */\n      dup2\n        /* \"#utility.yul\":8020:8024   */\n      dup2\n        /* \"#utility.yul\":8016:8036   */\n      sub\n        /* \"#utility.yul\":8012:8013   */\n      0x00\n        /* \"#utility.yul\":8001:8010   */\n      dup4\n        /* \"#utility.yul\":7997:8014   */\n      add\n        /* \"#utility.yul\":7990:8037   */\n      mstore\n        /* \"#utility.yul\":8054:8185   */\n      tag_260\n        /* \"#utility.yul\":8180:8184   */\n      dup2\n        /* \"#utility.yul\":8054:8185   */\n      tag_209\n      jump\t// in\n    tag_260:\n        /* \"#utility.yul\":8046:8185   */\n      swap1\n      pop\n        /* \"#utility.yul\":7773:8192   */\n      swap2\n      swap1\n      pop\n      jump\t// out\n        /* \"#utility.yul\":8198:8617   */\n    tag_106:\n        /* \"#utility.yul\":8364:8368   */\n      0x00\n        /* \"#utility.yul\":8402:8404   */\n      0x20\n        /* \"#utility.yul\":8391:8400   */\n      dup3\n        /* \"#utility.yul\":8387:8405   */\n      add\n        /* \"#utility.yul\":8379:8405   */\n      swap1\n      pop\n        /* \"#utility.yul\":8451:8460   */\n      dup2\n        /* \"#utility.yul\":8445:8449   */\n      dup2\n        /* \"#utility.yul\":8441:8461   */\n      sub\n        /* \"#utility.yul\":8437:8438   */\n      0x00\n        /* \"#utility.yul\":8426:8435   */\n      dup4\n        /* \"#utility.yul\":8422:8439   */\n      add\n        /* \"#utility.yul\":8415:8462   */\n      mstore\n        /* \"#utility.yul\":8479:8610   */\n      tag_262\n        /* \"#utility.yul\":8605:8609   */\n      dup2\n        /* \"#utility.yul\":8479:8610   */\n      tag_214\n      jump\t// in\n    tag_262:\n        /* \"#utility.yul\":8471:8610   */\n      swap1\n      pop\n        /* \"#utility.yul\":8198:8617   */\n      swap2\n      swap1\n      pop\n      jump\t// out\n        /* \"#utility.yul\":8623:9042   */\n    tag_114:\n        /* \"#utility.yul\":8789:8793   */\n      0x00\n        /* \"#utility.yul\":8827:8829   */\n      0x20\n        /* \"#utility.yul\":8816:8825   */\n      dup3\n        /* \"#utility.yul\":8812:8830   */\n      add\n        /* \"#utility.yul\":8804:8830   */\n      swap1\n      pop\n        /* \"#utility.yul\":8876:8885   */\n      dup2\n        /* \"#utility.yul\":8870:8874   */\n      dup2\n        /* \"#utility.yul\":8866:8886   */\n      sub\n        /* \"#utility.yul\":8862:8863   */\n      0x00\n        /* \"#utility.yul\":8851:8860   */\n      dup4\n        /* \"#utility.yul\":8847:8864   */\n      add\n        /* \"#utility.yul\":8840:8887   */\n      mstore\n        /* \"#utility.yul\":8904:9035   */\n      tag_264\n        /* \"#utility.yul\":9030:9034   */\n      dup2\n        /* \"#utility.yul\":8904:9035   */\n      tag_219\n      jump\t// in\n    tag_264:\n        /* \"#utility.yul\":8896:9035   */\n      swap1\n      pop\n        /* \"#utility.yul\":8623:9042   */\n      swap2\n      swap1\n      pop\n      jump\t// out\n        /* \"#utility.yul\":9048:9467   */\n    tag_126:\n        /* \"#utility.yul\":9214:9218   */\n      0x00\n        /* \"#utility.yul\":9252:9254   */\n      0x20\n        /* \"#utility.yul\":9241:9250   */\n      dup3\n        /* \"#utility.yul\":9237:9255   */\n      add\n        /* \"#utility.yul\":9229:9255   */\n      swap1\n      pop\n        /* \"#utility.yul\":9301:9310   */\n      dup2\n        /* \"#utility.yul\":9295:9299   */\n      dup2\n        /* \"#utility.yul\":9291:9311   */\n      sub\n        /* \"#utility.yul\":9287:9288   */\n      0x00\n        /* \"#utility.yul\":9276:9285   */\n      dup4\n        /* \"#utility.yul\":9272:9289   */\n      add\n        /* \"#utility.yul\":9265:9312   */\n      mstore\n        /* \"#utility.yul\":9329:9460   */\n      tag_266\n        /* \"#utility.yul\":9455:9459   */\n      dup2\n        /* \"#utility.yul\":9329:9460   */\n      tag_224\n      jump\t// in\n    tag_266:\n        /* \"#utility.yul\":9321:9460   */\n      swap1\n      pop\n        /* \"#utility.yul\":9048:9467   */\n      swap2\n      swap1\n      pop\n      jump\t// out\n        /* \"#utility.yul\":9473:9892   */\n    tag_100:\n        /* \"#utility.yul\":9639:9643   */\n      0x00\n        /* \"#utility.yul\":9677:9679   */\n      0x20\n        /* \"#utility.yul\":9666:9675   */\n      dup3\n        /* \"#utility.yul\":9662:9680   */\n      add\n        /* \"#utility.yul\":9654:9680   */\n      swap1\n      pop\n        /* \"#utility.yul\":9726:9735   */\n      dup2\n        /* \"#utility.yul\":9720:9724   */\n      dup2\n        /* \"#utility.yul\":9716:9736   */\n      sub\n        /* \"#utility.yul\":9712:9713   */\n      0x00\n        /* \"#utility.yul\":9701:9710   */\n      dup4\n        /* \"#utility.yul\":9697:9714   */\n      add\n        /* \"#utility.yul\":9690:9737   */\n      mstore\n        /* \"#utility.yul\":9754:9885   */\n      tag_268\n        /* \"#utility.yul\":9880:9884   */\n      dup2\n        /* \"#utility.yul\":9754:9885   */\n      tag_229\n      jump\t// in\n    tag_268:\n        /* \"#utility.yul\":9746:9885   */\n      swap1\n      pop\n        /* \"#utility.yul\":9473:9892   */\n      swap2\n      swap1\n      pop\n      jump\t// out\n        /* \"#utility.yul\":9898:10317   */\n    tag_94:\n        /* \"#utility.yul\":10064:10068   */\n      0x00\n        /* \"#utility.yul\":10102:10104   */\n      0x20\n        /* \"#utility.yul\":10091:10100   */\n      dup3\n        /* \"#utility.yul\":10087:10105   */\n      add\n        /* \"#utility.yul\":10079:10105   */\n      swap1\n      pop\n        /* \"#utility.yul\":10151:10160   */\n      dup2\n        /* \"#utility.yul\":10145:10149   */\n      dup2\n        /* \"#utility.yul\":10141:10161   */\n      sub\n        /* \"#utility.yul\":10137:10138   */\n      0x00\n        /* \"#utility.yul\":10126:10135   */\n      dup4\n        /* \"#utility.yul\":10122:10139   */\n      add\n        /* \"#utility.yul\":10115:10162   */\n      mstore\n        /* \"#utility.yul\":10179:10310   */\n      tag_270\n        /* \"#utility.yul\":10305:10309   */\n      dup2\n        /* \"#utility.yul\":10179:10310   */\n      tag_234\n      jump\t// in\n    tag_270:\n        /* \"#utility.yul\":10171:10310   */\n      swap1\n      pop\n        /* \"#utility.yul\":9898:10317   */\n      swap2\n      swap1\n      pop\n      jump\t// out\n        /* \"#utility.yul\":10323:10742   */\n    tag_97:\n        /* \"#utility.yul\":10489:10493   */\n      0x00\n        /* \"#utility.yul\":10527:10529   */\n      0x20\n        /* \"#utility.yul\":10516:10525   */\n      dup3\n        /* \"#utility.yul\":10512:10530   */\n      add\n        /* \"#utility.yul\":10504:10530   */\n      swap1\n      pop\n        /* \"#utility.yul\":10576:10585   */\n      dup2\n        /* \"#utility.yul\":10570:10574   */\n      dup2\n        /* \"#utility.yul\":10566:10586   */\n      sub\n        /* \"#utility.yul\":10562:10563   */\n      0x00\n        /* \"#utility.yul\":10551:10560   */\n      dup4\n        /* \"#utility.yul\":10547:10564   */\n      add\n        /* \"#utility.yul\":10540:10587   */\n      mstore\n        /* \"#utility.yul\":10604:10735   */\n      tag_272\n        /* \"#utility.yul\":10730:10734   */\n      dup2\n        /* \"#utility.yul\":10604:10735   */\n      tag_239\n      jump\t// in\n    tag_272:\n        /* \"#utility.yul\":10596:10735   */\n      swap1\n      pop\n        /* \"#utility.yul\":10323:10742   */\n      swap2\n      swap1\n      pop\n      jump\t// out\n        /* \"#utility.yul\":10748:11167   */\n    tag_117:\n        /* \"#utility.yul\":10914:10918   */\n      0x00\n        /* \"#utility.yul\":10952:10954   */\n      0x20\n        /* \"#utility.yul\":10941:10950   */\n      dup3\n        /* \"#utility.yul\":10937:10955   */\n      add\n        /* \"#utility.yul\":10929:10955   */\n      swap1\n      pop\n        /* \"#utility.yul\":11001:11010   */\n      dup2\n        /* \"#utility.yul\":10995:10999   */\n      dup2\n        /* \"#utility.yul\":10991:11011   */\n      sub\n        /* \"#utility.yul\":10987:10988   */\n      0x00\n        /* \"#utility.yul\":10976:10985   */\n      dup4\n        /* \"#utility.yul\":10972:10989   */\n      add\n        /* \"#utility.yul\":10965:11012   */\n      mstore\n        /* \"#utility.yul\":11029:11160   */\n      tag_274\n        /* \"#utility.yul\":11155:11159   */\n      dup2\n        /* \"#utility.yul\":11029:11160   */\n      tag_244\n      jump\t// in\n    tag_274:\n        /* \"#utility.yul\":11021:11160   */\n      swap1\n      pop\n        /* \"#utility.yul\":10748:11167   */\n      swap2\n      swap1\n      pop\n      jump\t// out\n        /* \"#utility.yul\":11173:11395   */\n    tag_35:\n        /* \"#utility.yul\":11266:11270   */\n      0x00\n        /* \"#utility.yul\":11304:11306   */\n      0x20\n        /* \"#utility.yul\":11293:11302   */\n      dup3\n        /* \"#utility.yul\":11289:11307   */\n      add\n        /* \"#utility.yul\":11281:11307   */\n      swap1\n      pop\n        /* \"#utility.yul\":11317:11388   */\n      tag_276\n        /* \"#utility.yul\":11385:11386   */\n      0x00\n        /* \"#utility.yul\":11374:11383   */\n      dup4\n        /* \"#utility.yul\":11370:11387   */\n      add\n        /* \"#utility.yul\":11361:11367   */\n      dup5\n        /* \"#utility.yul\":11317:11388   */\n      tag_249\n      jump\t// in\n    tag_276:\n        /* \"#utility.yul\":11173:11395   */\n      swap3\n      swap2\n      pop\n      pop\n      jump\t// out\n        /* \"#utility.yul\":11401:11530   */\n    tag_152:\n        /* \"#utility.yul\":11435:11441   */\n      0x00\n        /* \"#utility.yul\":11462:11482   */\n      tag_278\n      tag_279\n      jump\t// in\n    tag_278:\n        /* \"#utility.yul\":11452:11482   */\n      swap1\n      pop\n        /* \"#utility.yul\":11491:11524   */\n      tag_280\n        /* \"#utility.yul\":11519:11523   */\n      dup3\n        /* \"#utility.yul\":11511:11517   */\n      dup3\n        /* \"#utility.yul\":11491:11524   */\n      tag_281\n      jump\t// in\n    tag_280:\n        /* \"#utility.yul\":11401:11530   */\n      swap2\n      swap1\n      pop\n      jump\t// out\n        /* \"#utility.yul\":11536:11611   */\n    tag_279:\n        /* \"#utility.yul\":11569:11575   */\n      0x00\n        /* \"#utility.yul\":11602:11604   */\n      0x40\n        /* \"#utility.yul\":11596:11605   */\n      mload\n        /* \"#utility.yul\":11586:11605   */\n      swap1\n      pop\n        /* \"#utility.yul\":11536:11611   */\n      swap1\n      jump\t// out\n        /* \"#utility.yul\":11617:11925   */\n    tag_151:\n        /* \"#utility.yul\":11679:11683   */\n      0x00\n        /* \"#utility.yul\":11769:11787   */\n      0xffffffffffffffff\n        /* \"#utility.yul\":11761:11767   */\n      dup3\n        /* \"#utility.yul\":11758:11788   */\n      gt\n        /* \"#utility.yul\":11755:11811   */\n      iszero\n      tag_284\n      jumpi\n        /* \"#utility.yul\":11791:11809   */\n      tag_285\n      tag_286\n      jump\t// in\n    tag_285:\n        /* \"#utility.yul\":11755:11811   */\n    tag_284:\n        /* \"#utility.yul\":11829:11858   */\n      tag_287\n        /* \"#utility.yul\":11851:11857   */\n      dup3\n        /* \"#utility.yul\":11829:11858   */\n      tag_288\n      jump\t// in\n    tag_287:\n        /* \"#utility.yul\":11821:11858   */\n      swap1\n      pop\n        /* \"#utility.yul\":11913:11917   */\n      0x20\n        /* \"#utility.yul\":11907:11911   */\n      dup2\n        /* \"#utility.yul\":11903:11918   */\n      add\n        /* \"#utility.yul\":11895:11918   */\n      swap1\n      pop\n        /* \"#utility.yul\":11617:11925   */\n      swap2\n      swap1\n      pop\n      jump\t// out\n        /* \"#utility.yul\":11931:12100   */\n    tag_201:\n        /* \"#utility.yul\":12015:12026   */\n      0x00\n        /* \"#utility.yul\":12049:12055   */\n      dup3\n        /* \"#utility.yul\":12044:12047   */\n      dup3\n        /* \"#utility.yul\":12037:12056   */\n      mstore\n        /* \"#utility.yul\":12089:12093   */\n      0x20\n        /* \"#utility.yul\":12084:12087   */\n      dup3\n        /* \"#utility.yul\":12080:12094   */\n      add\n        /* \"#utility.yul\":12065:12094   */\n      swap1\n      pop\n        /* \"#utility.yul\":11931:12100   */\n      swap3\n      swap2\n      pop\n      pop\n      jump\t// out\n        /* \"#utility.yul\":12106:12411   */\n    tag_89:\n        /* \"#utility.yul\":12146:12149   */\n      0x00\n        /* \"#utility.yul\":12165:12185   */\n      tag_291\n        /* \"#utility.yul\":12183:12184   */\n      dup3\n        /* \"#utility.yul\":12165:12185   */\n      tag_252\n      jump\t// in\n    tag_291:\n        /* \"#utility.yul\":12160:12185   */\n      swap2\n      pop\n        /* \"#utility.yul\":12199:12219   */\n      tag_292\n        /* \"#utility.yul\":12217:12218   */\n      dup4\n        /* \"#utility.yul\":12199:12219   */\n      tag_252\n      jump\t// in\n    tag_292:\n        /* \"#utility.yul\":12194:12219   */\n      swap3\n      pop\n        /* \"#utility.yul\":12353:12354   */\n      dup3\n        /* \"#utility.yul\":12285:12351   */\n      0xffffffffffffffffffffffffffffffffffffffffffffffffffffffffffffffff\n        /* \"#utility.yul\":12281:12355   */\n      sub\n        /* \"#utility.yul\":12278:12279   */\n      dup3\n        /* \"#utility.yul\":12275:12356   */\n      gt\n        /* \"#utility.yul\":12272:12379   */\n      iszero\n      tag_293\n      jumpi\n        /* \"#utility.yul\":12359:12377   */\n      tag_294\n      tag_295\n      jump\t// in\n    tag_294:\n        /* \"#utility.yul\":12272:12379   */\n    tag_293:\n        /* \"#utility.yul\":12403:12404   */\n      dup3\n        /* \"#utility.yul\":12400:12401   */\n      dup3\n        /* \"#utility.yul\":12396:12405   */\n      add\n        /* \"#utility.yul\":12389:12405   */\n      swap1\n      pop\n        /* \"#utility.yul\":12106:12411   */\n      swap3\n      swap2\n      pop\n      pop\n      jump\t// out\n        /* \"#utility.yul\":12417:12602   */\n    tag_128:\n        /* \"#utility.yul\":12457:12458   */\n      0x00\n        /* \"#utility.yul\":12474:12494   */\n      tag_297\n        /* \"#utility.yul\":12492:12493   */\n      dup3\n        /* \"#utility.yul\":12474:12494   */\n      tag_252\n      jump\t// in\n    tag_297:\n        /* \"#utility.yul\":12469:12494   */\n      swap2\n      pop\n        /* \"#utility.yul\":12508:12528   */\n      tag_298\n        /* \"#utility.yul\":12526:12527   */\n      dup4\n        /* \"#utility.yul\":12508:12528   */\n      tag_252\n      jump\t// in\n    tag_298:\n        /* \"#utility.yul\":12503:12528   */\n      swap3\n      pop\n        /* \"#utility.yul\":12547:12548   */\n      dup3\n        /* \"#utility.yul\":12537:12572   */\n      tag_299\n      jumpi\n        /* \"#utility.yul\":12552:12570   */\n      tag_300\n      tag_301\n      jump\t// in\n    tag_300:\n        /* \"#utility.yul\":12537:12572   */\n    tag_299:\n        /* \"#utility.yul\":12594:12595   */\n      dup3\n        /* \"#utility.yul\":12591:12592   */\n      dup3\n        /* \"#utility.yul\":12587:12596   */\n      div\n        /* \"#utility.yul\":12582:12596   */\n      swap1\n      pop\n        /* \"#utility.yul\":12417:12602   */\n      swap3\n      swap2\n      pop\n      pop\n      jump\t// out\n        /* \"#utility.yul\":12608:12704   */\n    tag_197:\n        /* \"#utility.yul\":12645:12652   */\n      0x00\n        /* \"#utility.yul\":12674:12698   */\n      tag_303\n        /* \"#utility.yul\":12692:12697   */\n      dup3\n        /* \"#utility.yul\":12674:12698   */\n      tag_304\n      jump\t// in\n    tag_303:\n        /* \"#utility.yul\":12663:12698   */\n      swap1\n      pop\n        /* \"#utility.yul\":12608:12704   */\n      swap2\n      swap1\n      pop\n      jump\t// out\n        /* \"#utility.yul\":12710:12814   */\n    tag_305:\n        /* \"#utility.yul\":12755:12762   */\n      0x00\n        /* \"#utility.yul\":12784:12808   */\n      tag_307\n        /* \"#utility.yul\":12802:12807   */\n      dup3\n        /* \"#utility.yul\":12784:12808   */\n      tag_304\n      jump\t// in\n    tag_307:\n        /* \"#utility.yul\":12773:12808   */\n      swap1\n      pop\n        /* \"#utility.yul\":12710:12814   */\n      swap2\n      swap1\n      pop\n      jump\t// out\n        /* \"#utility.yul\":12820:12946   */\n    tag_304:\n        /* \"#utility.yul\":12857:12864   */\n      0x00\n        /* \"#utility.yul\":12897:12939   */\n      0xffffffffffffffffffffffffffffffffffffffff\n        /* \"#utility.yul\":12890:12895   */\n      dup3\n        /* \"#utility.yul\":12886:12940   */\n      and\n        /* \"#utility.yul\":12875:12940   */\n      swap1\n      pop\n        /* \"#utility.yul\":12820:12946   */\n      swap2\n      swap1\n      pop\n      jump\t// out\n        /* \"#utility.yul\":12952:13029   */\n    tag_252:\n        /* \"#utility.yul\":12989:12996   */\n      0x00\n        /* \"#utility.yul\":13018:13023   */\n      dup2\n        /* \"#utility.yul\":13007:13023   */\n      swap1\n      pop\n        /* \"#utility.yul\":12952:13029   */\n      swap2\n      swap1\n      pop\n      jump\t// out\n        /* \"#utility.yul\":13035:13189   */\n    tag_157:\n        /* \"#utility.yul\":13119:13125   */\n      dup3\n        /* \"#utility.yul\":13114:13117   */\n      dup2\n        /* \"#utility.yul\":13109:13112   */\n      dup4\n        /* \"#utility.yul\":13096:13126   */\n      calldatacopy\n        /* \"#utility.yul\":13181:13182   */\n      0x00\n        /* \"#utility.yul\":13172:13178   */\n      dup4\n        /* \"#utility.yul\":13167:13170   */\n      dup4\n        /* \"#utility.yul\":13163:13179   */\n      add\n        /* \"#utility.yul\":13156:13183   */\n      mstore\n        /* \"#utility.yul\":13035:13189   */\n      pop\n      pop\n      pop\n      jump\t// out\n        /* \"#utility.yul\":13195:13515   */\n    tag_136:\n        /* \"#utility.yul\":13239:13245   */\n      0x00\n        /* \"#utility.yul\":13276:13277   */\n      0x02\n        /* \"#utility.yul\":13270:13274   */\n      dup3\n        /* \"#utility.yul\":13266:13278   */\n      div\n        /* \"#utility.yul\":13256:13278   */\n      swap1\n      pop\n        /* \"#utility.yul\":13323:13324   */\n      0x01\n        /* \"#utility.yul\":13317:13321   */\n      dup3\n        /* \"#utility.yul\":13313:13325   */\n      and\n        /* \"#utility.yul\":13344:13362   */\n      dup1\n        /* \"#utility.yul\":13334:13415   */\n      tag_312\n      jumpi\n        /* \"#utility.yul\":13400:13404   */\n      0x7f\n        /* \"#utility.yul\":13392:13398   */\n      dup3\n        /* \"#utility.yul\":13388:13405   */\n      and\n        /* \"#utility.yul\":13378:13405   */\n      swap2\n      pop\n        /* \"#utility.yul\":13334:13415   */\n    tag_312:\n        /* \"#utility.yul\":13462:13464   */\n      0x20\n        /* \"#utility.yul\":13454:13460   */\n      dup3\n        /* \"#utility.yul\":13451:13465   */\n      lt\n        /* \"#utility.yul\":13431:13449   */\n      dup2\n        /* \"#utility.yul\":13428:13466   */\n      eq\n        /* \"#utility.yul\":13425:13509   */\n      iszero\n      tag_313\n      jumpi\n        /* \"#utility.yul\":13481:13499   */\n      tag_314\n      tag_315\n      jump\t// in\n    tag_314:\n        /* \"#utility.yul\":13425:13509   */\n    tag_313:\n        /* \"#utility.yul\":13246:13515   */\n      pop\n        /* \"#utility.yul\":13195:13515   */\n      swap2\n      swap1\n      pop\n      jump\t// out\n        /* \"#utility.yul\":13521:13802   */\n    tag_281:\n        /* \"#utility.yul\":13604:13631   */\n      tag_317\n        /* \"#utility.yul\":13626:13630   */\n      dup3\n        /* \"#utility.yul\":13604:13631   */\n      tag_288\n      jump\t// in\n    tag_317:\n        /* \"#utility.yul\":13596:13602   */\n      dup2\n        /* \"#utility.yul\":13592:13632   */\n      add\n        /* \"#utility.yul\":13734:13740   */\n      dup2\n        /* \"#utility.yul\":13722:13732   */\n      dup2\n        /* \"#utility.yul\":13719:13741   */\n      lt\n        /* \"#utility.yul\":13698:13716   */\n      0xffffffffffffffff\n        /* \"#utility.yul\":13686:13696   */\n      dup3\n        /* \"#utility.yul\":13683:13717   */\n      gt\n        /* \"#utility.yul\":13680:13742   */\n      or\n        /* \"#utility.yul\":13677:13765   */\n      iszero\n      tag_318\n      jumpi\n        /* \"#utility.yul\":13745:13763   */\n      tag_319\n      tag_286\n      jump\t// in\n    tag_319:\n        /* \"#utility.yul\":13677:13765   */\n    tag_318:\n        /* \"#utility.yul\":13785:13795   */\n      dup1\n        /* \"#utility.yul\":13781:13783   */\n      0x40\n        /* \"#utility.yul\":13774:13796   */\n      mstore\n        /* \"#utility.yul\":13564:13802   */\n      pop\n        /* \"#utility.yul\":13521:13802   */\n      pop\n      pop\n      jump\t// out\n        /* \"#utility.yul\":13808:14041   */\n    tag_87:\n        /* \"#utility.yul\":13847:13850   */\n      0x00\n        /* \"#utility.yul\":13870:13894   */\n      tag_321\n        /* \"#utility.yul\":13888:13893   */\n      dup3\n        /* \"#utility.yul\":13870:13894   */\n      tag_252\n      jump\t// in\n    tag_321:\n        /* \"#utility.yul\":13861:13894   */\n      swap2\n      pop\n        /* \"#utility.yul\":13916:13982   */\n      0xffffffffffffffffffffffffffffffffffffffffffffffffffffffffffffffff\n        /* \"#utility.yul\":13909:13914   */\n      dup3\n        /* \"#utility.yul\":13906:13983   */\n      eq\n        /* \"#utility.yul\":13903:14006   */\n      iszero\n      tag_322\n      jumpi\n        /* \"#utility.yul\":13986:14004   */\n      tag_323\n      tag_295\n      jump\t// in\n    tag_323:\n        /* \"#utility.yul\":13903:14006   */\n    tag_322:\n        /* \"#utility.yul\":14033:14034   */\n      0x01\n        /* \"#utility.yul\":14026:14031   */\n      dup3\n        /* \"#utility.yul\":14022:14035   */\n      add\n        /* \"#utility.yul\":14015:14035   */\n      swap1\n      pop\n        /* \"#utility.yul\":13808:14041   */\n      swap2\n      swap1\n      pop\n      jump\t// out\n        /* \"#utility.yul\":14047:14227   */\n    tag_295:\n        /* \"#utility.yul\":14095:14172   */\n      0x4e487b7100000000000000000000000000000000000000000000000000000000\n        /* \"#utility.yul\":14092:14093   */\n      0x00\n        /* \"#utility.yul\":14085:14173   */\n      mstore\n        /* \"#utility.yul\":14192:14196   */\n      0x11\n        /* \"#utility.yul\":14189:14190   */\n      0x04\n        /* \"#utility.yul\":14182:14197   */\n      mstore\n        /* \"#utility.yul\":14216:14220   */\n      0x24\n        /* \"#utility.yul\":14213:14214   */\n      0x00\n        /* \"#utility.yul\":14206:14221   */\n      revert\n        /* \"#utility.yul\":14233:14413   */\n    tag_301:\n        /* \"#utility.yul\":14281:14358   */\n      0x4e487b7100000000000000000000000000000000000000000000000000000000\n        /* \"#utility.yul\":14278:14279   */\n      0x00\n        /* \"#utility.yul\":14271:14359   */\n      mstore\n        /* \"#utility.yul\":14378:14382   */\n      0x12\n        /* \"#utility.yul\":14375:14376   */\n      0x04\n        /* \"#utility.yul\":14368:14383   */\n      mstore\n        /* \"#utility.yul\":14402:14406   */\n      0x24\n        /* \"#utility.yul\":14399:14400   */\n      0x00\n        /* \"#utility.yul\":14392:14407   */\n      revert\n        /* \"#utility.yul\":14419:14599   */\n    tag_315:\n        /* \"#utility.yul\":14467:14544   */\n      0x4e487b7100000000000000000000000000000000000000000000000000000000\n        /* \"#utility.yul\":14464:14465   */\n      0x00\n        /* \"#utility.yul\":14457:14545   */\n      mstore\n        /* \"#utility.yul\":14564:14568   */\n      0x22\n        /* \"#utility.yul\":14561:14562   */\n      0x04\n        /* \"#utility.yul\":14554:14569   */\n      mstore\n        /* \"#utility.yul\":14588:14592   */\n      0x24\n        /* \"#utility.yul\":14585:14586   */\n      0x00\n        /* \"#utility.yul\":14578:14593   */\n      revert\n        /* \"#utility.yul\":14605:14785   */\n    tag_286:\n        /* \"#utility.yul\":14653:14730   */\n      0x4e487b7100000000000000000000000000000000000000000000000000000000\n        /* \"#utility.yul\":14650:14651   */\n      0x00\n        /* \"#utility.yul\":14643:14731   */\n      mstore\n        /* \"#utility.yul\":14750:14754   */\n      0x41\n        /* \"#utility.yul\":14747:14748   */\n      0x04\n        /* \"#utility.yul\":14740:14755   */\n      mstore\n        /* \"#utility.yul\":14774:14778   */\n      0x24\n        /* \"#utility.yul\":14771:14772   */\n      0x00\n        /* \"#utility.yul\":14764:14779   */\n      revert\n        /* \"#utility.yul\":14791:14908   */\n    tag_170:\n        /* \"#utility.yul\":14900:14901   */\n      0x00\n        /* \"#utility.yul\":14897:14898   */\n      dup1\n        /* \"#utility.yul\":14890:14902   */\n      revert\n        /* \"#utility.yul\":14914:15031   */\n    tag_155:\n        /* \"#utility.yul\":15023:15024   */\n      0x00\n        /* \"#utility.yul\":15020:15021   */\n      dup1\n        /* \"#utility.yul\":15013:15025   */\n      revert\n        /* \"#utility.yul\":15037:15154   */\n    tag_186:\n        /* \"#utility.yul\":15146:15147   */\n      0x00\n        /* \"#utility.yul\":15143:15144   */\n      dup1\n        /* \"#utility.yul\":15136:15148   */\n      revert\n        /* \"#utility.yul\":15160:15277   */\n    tag_179:\n        /* \"#utility.yul\":15269:15270   */\n      0x00\n        /* \"#utility.yul\":15266:15267   */\n      dup1\n        /* \"#utility.yul\":15259:15271   */\n      revert\n        /* \"#utility.yul\":15283:15385   */\n    tag_288:\n        /* \"#utility.yul\":15324:15330   */\n      0x00\n        /* \"#utility.yul\":15375:15377   */\n      0x1f\n        /* \"#utility.yul\":15371:15378   */\n      not\n        /* \"#utility.yul\":15366:15368   */\n      0x1f\n        /* \"#utility.yul\":15359:15364   */\n      dup4\n        /* \"#utility.yul\":15355:15369   */\n      add\n        /* \"#utility.yul\":15351:15379   */\n      and\n        /* \"#utility.yul\":15341:15379   */\n      swap1\n      pop\n        /* \"#utility.yul\":15283:15385   */\n      swap2\n      swap1\n      pop\n      jump\t// out\n        /* \"#utility.yul\":15391:15620   */\n    tag_203:\n        /* \"#utility.yul\":15531:15565   */\n      0x4d616a6f7269747920537570706f7274206d61726b20686173206e6f74206265\n        /* \"#utility.yul\":15527:15528   */\n      0x00\n        /* \"#utility.yul\":15519:15525   */\n      dup3\n        /* \"#utility.yul\":15515:15529   */\n      add\n        /* \"#utility.yul\":15508:15566   */\n      mstore\n        /* \"#utility.yul\":15600:15612   */\n      0x656e2063726f7373656400000000000000000000000000000000000000000000\n        /* \"#utility.yul\":15595:15597   */\n      0x20\n        /* \"#utility.yul\":15587:15593   */\n      dup3\n        /* \"#utility.yul\":15583:15598   */\n      add\n        /* \"#utility.yul\":15576:15613   */\n      mstore\n        /* \"#utility.yul\":15391:15620   */\n      pop\n      jump\t// out\n        /* \"#utility.yul\":15626:15808   */\n    tag_208:\n        /* \"#utility.yul\":15766:15800   */\n      0x4d696e696d756d20436f6e747269627574696f6e20686173206e6f74206d6574\n        /* \"#utility.yul\":15762:15763   */\n      0x00\n        /* \"#utility.yul\":15754:15760   */\n      dup3\n        /* \"#utility.yul\":15750:15764   */\n      add\n        /* \"#utility.yul\":15743:15801   */\n      mstore\n        /* \"#utility.yul\":15626:15808   */\n      pop\n      jump\t// out\n        /* \"#utility.yul\":15814:15983   */\n    tag_213:\n        /* \"#utility.yul\":15954:15975   */\n      0x446561646c696e65206861732070617373656400000000000000000000000000\n        /* \"#utility.yul\":15950:15951   */\n      0x00\n        /* \"#utility.yul\":15942:15948   */\n      dup3\n        /* \"#utility.yul\":15938:15952   */\n      add\n        /* \"#utility.yul\":15931:15976   */\n      mstore\n        /* \"#utility.yul\":15814:15983   */\n      pop\n      jump\t// out\n        /* \"#utility.yul\":15989:16211   */\n    tag_218:\n        /* \"#utility.yul\":16129:16163   */\n      0x4f6e6c79204d616e616765722063616e2063616c6c20746869732066756e6374\n        /* \"#utility.yul\":16125:16126   */\n      0x00\n        /* \"#utility.yul\":16117:16123   */\n      dup3\n        /* \"#utility.yul\":16113:16127   */\n      add\n        /* \"#utility.yul\":16106:16164   */\n      mstore\n        /* \"#utility.yul\":16198:16203   */\n      0x696f6e0000000000000000000000000000000000000000000000000000000000\n        /* \"#utility.yul\":16193:16195   */\n      0x20\n        /* \"#utility.yul\":16185:16191   */\n      dup3\n        /* \"#utility.yul\":16181:16196   */\n      add\n        /* \"#utility.yul\":16174:16204   */\n      mstore\n        /* \"#utility.yul\":15989:16211   */\n      pop\n      jump\t// out\n        /* \"#utility.yul\":16217:16384   */\n    tag_223:\n        /* \"#utility.yul\":16357:16376   */\n      0x4e6f74206120636f6e7472696275746f72000000000000000000000000000000\n        /* \"#utility.yul\":16353:16354   */\n      0x00\n        /* \"#utility.yul\":16345:16351   */\n      dup3\n        /* \"#utility.yul\":16341:16355   */\n      add\n        /* \"#utility.yul\":16334:16377   */\n      mstore\n        /* \"#utility.yul\":16217:16384   */\n      pop\n      jump\t// out\n        /* \"#utility.yul\":16390:16570   */\n    tag_228:\n        /* \"#utility.yul\":16530:16562   */\n      0x416c72656164792044697374726962757465642074686520616d6f756e740000\n        /* \"#utility.yul\":16526:16527   */\n      0x00\n        /* \"#utility.yul\":16518:16524   */\n      dup3\n        /* \"#utility.yul\":16514:16528   */\n      add\n        /* \"#utility.yul\":16507:16563   */\n      mstore\n        /* \"#utility.yul\":16390:16570   */\n      pop\n      jump\t// out\n        /* \"#utility.yul\":16576:16749   */\n    tag_233:\n        /* \"#utility.yul\":16716:16741   */\n      0x53686f756c64206265206120436f6e7472696275746f72000000000000000000\n        /* \"#utility.yul\":16712:16713   */\n      0x00\n        /* \"#utility.yul\":16704:16710   */\n      dup3\n        /* \"#utility.yul\":16700:16714   */\n      add\n        /* \"#utility.yul\":16693:16742   */\n      mstore\n        /* \"#utility.yul\":16576:16749   */\n      pop\n      jump\t// out\n        /* \"#utility.yul\":16755:16934   */\n    tag_238:\n        /* \"#utility.yul\":16895:16926   */\n      0x446561646c696e6520686173206e6f7420657870697265642079657421000000\n        /* \"#utility.yul\":16891:16892   */\n      0x00\n        /* \"#utility.yul\":16883:16889   */\n      dup3\n        /* \"#utility.yul\":16879:16893   */\n      add\n        /* \"#utility.yul\":16872:16927   */\n      mstore\n        /* \"#utility.yul\":16755:16934   */\n      pop\n      jump\t// out\n        /* \"#utility.yul\":16940:17108   */\n    tag_243:\n        /* \"#utility.yul\":17080:17100   */\n      0x54617267657420686173206e6f74206d65740000000000000000000000000000\n        /* \"#utility.yul\":17076:17077   */\n      0x00\n        /* \"#utility.yul\":17068:17074   */\n      dup3\n        /* \"#utility.yul\":17064:17078   */\n      add\n        /* \"#utility.yul\":17057:17101   */\n      mstore\n        /* \"#utility.yul\":16940:17108   */\n      pop\n      jump\t// out\n        /* \"#utility.yul\":17114:17286   */\n    tag_248:\n        /* \"#utility.yul\":17254:17278   */\n      0x596f75206861766520616c726561647920766f74656400000000000000000000\n        /* \"#utility.yul\":17250:17251   */\n      0x00\n        /* \"#utility.yul\":17242:17248   */\n      dup3\n        /* \"#utility.yul\":17238:17252   */\n      add\n        /* \"#utility.yul\":17231:17279   */\n      mstore\n        /* \"#utility.yul\":17114:17286   */\n      pop\n      jump\t// out\n        /* \"#utility.yul\":17292:17414   */\n    tag_161:\n        /* \"#utility.yul\":17365:17389   */\n      tag_344\n        /* \"#utility.yul\":17383:17388   */\n      dup2\n        /* \"#utility.yul\":17365:17389   */\n      tag_197\n      jump\t// in\n    tag_344:\n        /* \"#utility.yul\":17358:17363   */\n      dup2\n        /* \"#utility.yul\":17355:17390   */\n      eq\n        /* \"#utility.yul\":17345:17408   */\n      tag_345\n      jumpi\n        /* \"#utility.yul\":17404:17405   */\n      0x00\n        /* \"#utility.yul\":17401:17402   */\n      dup1\n        /* \"#utility.yul\":17394:17406   */\n      revert\n        /* \"#utility.yul\":17345:17408   */\n    tag_345:\n        /* \"#utility.yul\":17292:17414   */\n      pop\n      jump\t// out\n        /* \"#utility.yul\":17420:17558   */\n    tag_165:\n        /* \"#utility.yul\":17501:17533   */\n      tag_347\n        /* \"#utility.yul\":17527:17532   */\n      dup2\n        /* \"#utility.yul\":17501:17533   */\n      tag_305\n      jump\t// in\n    tag_347:\n        /* \"#utility.yul\":17494:17499   */\n      dup2\n        /* \"#utility.yul\":17491:17534   */\n      eq\n        /* \"#utility.yul\":17481:17552   */\n      tag_348\n      jumpi\n        /* \"#utility.yul\":17548:17549   */\n      0x00\n        /* \"#utility.yul\":17545:17546   */\n      dup1\n        /* \"#utility.yul\":17538:17550   */\n      revert\n        /* \"#utility.yul\":17481:17552   */\n    tag_348:\n        /* \"#utility.yul\":17420:17558   */\n      pop\n      jump\t// out\n        /* \"#utility.yul\":17564:17686   */\n    tag_175:\n        /* \"#utility.yul\":17637:17661   */\n      tag_350\n        /* \"#utility.yul\":17655:17660   */\n      dup2\n        /* \"#utility.yul\":17637:17661   */\n      tag_252\n      jump\t// in\n    tag_350:\n        /* \"#utility.yul\":17630:17635   */\n      dup2\n        /* \"#utility.yul\":17627:17662   */\n      eq\n        /* \"#utility.yul\":17617:17680   */\n      tag_351\n      jumpi\n        /* \"#utility.yul\":17676:17677   */\n      0x00\n        /* \"#utility.yul\":17673:17674   */\n      dup1\n        /* \"#utility.yul\":17666:17678   */\n      revert\n        /* \"#utility.yul\":17617:17680   */\n    tag_351:\n        /* \"#utility.yul\":17564:17686   */\n      pop\n      jump\t// out\n\n    auxdata: 0xa2646970667358221220fa1cc406a944622a7785878adf988c597d20bdaf849f34e23f2c18b1a684e6be64736f6c63430008070033\n}\n",
				"bytecode": {
					"linkReferences": {},
					"object": "60806040523480156200001157600080fd5b50604051620017aa380380620017aa8339818101604052810190620000379190620000ba565b8160048190555080426200004c919062000101565b600381905550606460028190555033600160006101000a81548173ffffffffffffffffffffffffffffffffffffffff021916908373ffffffffffffffffffffffffffffffffffffffff1602179055505050620001b6565b600081519050620000b4816200019c565b92915050565b60008060408385031215620000d457620000d362000197565b5b6000620000e485828601620000a3565b9250506020620000f785828601620000a3565b9150509250929050565b60006200010e826200015e565b91506200011b836200015e565b9250827fffffffffffffffffffffffffffffffffffffffffffffffffffffffffffffffff0382111562000153576200015262000168565b5b828201905092915050565b6000819050919050565b7f4e487b7100000000000000000000000000000000000000000000000000000000600052601160045260246000fd5b600080fd5b620001a7816200015e565b8114620001b357600080fd5b50565b6115e480620001c66000396000f3fe6080604052600436106100dd5760003560e01c80635114cb521161007f578063bef3a08311610059578063bef3a08314610267578063c1f11b4c14610292578063d4b83992146102bd578063db638f0b146102e8576100dd565b80635114cb52146101e85780636f9fb98a14610211578063aaffadf31461023c576100dd565b80631f6d4942116100bb5780631f6d49421461012c578063481c6a75146101695780634cb6f4a5146101945780634e260f6f146101bd576100dd565b80630e29df22146100e25780630ff0a4df146100ec5780631b16bb5c14610103575b600080fd5b6100ea610313565b005b3480156100f857600080fd5b5061010161046c565b005b34801561010f57600080fd5b5061012a60048036038101906101259190610d1d565b610648565b005b34801561013857600080fd5b50610153600480360381019061014e9190610cf0565b61079b565b6040516101609190611090565b60405180910390f35b34801561017557600080fd5b5061017e6107b3565b60405161018b9190610f35565b60405180910390f35b3480156101a057600080fd5b506101bb60048036038101906101b69190610d8c565b6107d9565b005b3480156101c957600080fd5b506101d261097e565b6040516101df9190611090565b60405180910390f35b3480156101f457600080fd5b5061020f600480360381019061020a9190610d8c565b610984565b005b34801561021d57600080fd5b50610226610b78565b6040516102339190611090565b60405180910390f35b34801561024857600080fd5b50610251610b80565b60405161025e9190611090565b60405180910390f35b34801561027357600080fd5b5061027c610b86565b6040516102899190611090565b60405180910390f35b34801561029e57600080fd5b506102a7610b8c565b6040516102b49190611090565b60405180910390f35b3480156102c957600080fd5b506102d2610b92565b6040516102df9190611090565b60405180910390f35b3480156102f457600080fd5b506102fd610b98565b60405161030a9190611090565b60405180910390f35b6003544210610357576040517f08c379a000000000000000000000000000000000000000000000000000000000815260040161034e90610f90565b60405180910390fd5b60025434101561039c576040517f08c379a000000000000000000000000000000000000000000000000000000000815260040161039390610f70565b60405180910390fd5b60008060003373ffffffffffffffffffffffffffffffffffffffff1673ffffffffffffffffffffffffffffffffffffffff1681526020019081526020016000205414156103fc57600660008154809291906103f690611259565b91905055505b346000803373ffffffffffffffffffffffffffffffffffffffff1673ffffffffffffffffffffffffffffffffffffffff168152602001908152602001600020600082825461044a9190611112565b9250508190555034600560008282546104639190611112565b92505081905550565b60035442116104b0576040517f08c379a00000000000000000000000000000000000000000000000000000000081526004016104a790611030565b60405180910390fd5b600454600554106104f6576040517f08c379a00000000000000000000000000000000000000000000000000000000081526004016104ed90611050565b60405180910390fd5b60008060003373ffffffffffffffffffffffffffffffffffffffff1673ffffffffffffffffffffffffffffffffffffffff1681526020019081526020016000205411610577576040517f08c379a000000000000000000000000000000000000000000000000000000000815260040161056e90611010565b60405180910390fd5b60003390508073ffffffffffffffffffffffffffffffffffffffff166108fc6000803373ffffffffffffffffffffffffffffffffffffffff1673ffffffffffffffffffffffffffffffffffffffff168152602001908152602001600020549081150290604051600060405180830381858888f19350505050158015610600573d6000803e3d6000fd5b5060008060003373ffffffffffffffffffffffffffffffffffffffff1673ffffffffffffffffffffffffffffffffffffffff1681526020019081526020016000208190555050565b600160009054906101000a900473ffffffffffffffffffffffffffffffffffffffff1673ffffffffffffffffffffffffffffffffffffffff163373ffffffffffffffffffffffffffffffffffffffff16146106d8576040517f08c379a00000000000000000000000000000000000000000000000000000000081526004016106cf90610fb0565b60405180910390fd5b600060076000600854815260200190815260200160002090506008600081548092919061070490611259565b919050555083816000019080519060200190610721929190610b9e565b50828160010160006101000a81548173ffffffffffffffffffffffffffffffffffffffff021916908373ffffffffffffffffffffffffffffffffffffffff16021790555081816002018190555060008160030160006101000a81548160ff0219169083151502179055506000816004018190555050505050565b60006020528060005260406000206000915090505481565b600160009054906101000a900473ffffffffffffffffffffffffffffffffffffffff1681565b60008060003373ffffffffffffffffffffffffffffffffffffffff1673ffffffffffffffffffffffffffffffffffffffff168152602001908152602001600020541161085a576040517f08c379a000000000000000000000000000000000000000000000000000000000815260040161085190610fd0565b60405180910390fd5b6000600760008381526020019081526020016000209050600015158160050160003373ffffffffffffffffffffffffffffffffffffffff1673ffffffffffffffffffffffffffffffffffffffff16815260200190815260200160002060009054906101000a900460ff16151514610906576040517f08c379a00000000000000000000000000000000000000000000000000000000081526004016108fd90611070565b60405180910390fd5b60018160050160003373ffffffffffffffffffffffffffffffffffffffff1673ffffffffffffffffffffffffffffffffffffffff16815260200190815260200160002060006101000a81548160ff02191690831515021790555080600401600081548092919061097590611259565b91905055505050565b60065481565b600160009054906101000a900473ffffffffffffffffffffffffffffffffffffffff1673ffffffffffffffffffffffffffffffffffffffff163373ffffffffffffffffffffffffffffffffffffffff1614610a14576040517f08c379a0000000000000000000000000000000000000000000000000000000008152600401610a0b90610fb0565b60405180910390fd5b6004546005541015610a2557600080fd5b6000600760008381526020019081526020016000209050600015158160030160009054906101000a900460ff16151514610a94576040517f08c379a0000000000000000000000000000000000000000000000000000000008152600401610a8b90610ff0565b60405180910390fd5b6002600654610aa39190611168565b816004015411610ae8576040517f08c379a0000000000000000000000000000000000000000000000000000000008152600401610adf90610f50565b60405180910390fd5b8060010160009054906101000a900473ffffffffffffffffffffffffffffffffffffffff1673ffffffffffffffffffffffffffffffffffffffff166108fc82600201549081150290604051600060405180830381858888f19350505050158015610b56573d6000803e3d6000fd5b5060018160030160006101000a81548160ff0219169083151502179055505050565b600047905090565b60025481565b60035481565b60085481565b60045481565b60055481565b828054610baa906111f6565b90600052602060002090601f016020900481019282610bcc5760008555610c13565b82601f10610be557805160ff1916838001178555610c13565b82800160010185558215610c13579182015b82811115610c12578251825591602001919060010190610bf7565b5b509050610c209190610c24565b5090565b5b80821115610c3d576000816000905550600101610c25565b5090565b6000610c54610c4f846110d0565b6110ab565b905082815260208101848484011115610c7057610c6f611363565b5b610c7b8482856111e7565b509392505050565b600081359050610c9281611569565b92915050565b600081359050610ca781611580565b92915050565b600082601f830112610cc257610cc161135e565b5b8135610cd2848260208601610c41565b91505092915050565b600081359050610cea81611597565b92915050565b600060208284031215610d0657610d0561136d565b5b6000610d1484828501610c83565b91505092915050565b600080600060608486031215610d3657610d3561136d565b5b600084013567ffffffffffffffff811115610d5457610d53611368565b5b610d6086828701610cad565b9350506020610d7186828701610c98565b9250506040610d8286828701610cdb565b9150509250925092565b600060208284031215610da257610da161136d565b5b6000610db084828501610cdb565b91505092915050565b610dc281611199565b82525050565b6000610dd5602a83611101565b9150610de082611383565b604082019050919050565b6000610df8602083611101565b9150610e03826113d2565b602082019050919050565b6000610e1b601383611101565b9150610e26826113fb565b602082019050919050565b6000610e3e602383611101565b9150610e4982611424565b604082019050919050565b6000610e61601183611101565b9150610e6c82611473565b602082019050919050565b6000610e84601e83611101565b9150610e8f8261149c565b602082019050919050565b6000610ea7601783611101565b9150610eb2826114c5565b602082019050919050565b6000610eca601d83611101565b9150610ed5826114ee565b602082019050919050565b6000610eed601283611101565b9150610ef882611517565b602082019050919050565b6000610f10601683611101565b9150610f1b82611540565b602082019050919050565b610f2f816111dd565b82525050565b6000602082019050610f4a6000830184610db9565b92915050565b60006020820190508181036000830152610f6981610dc8565b9050919050565b60006020820190508181036000830152610f8981610deb565b9050919050565b60006020820190508181036000830152610fa981610e0e565b9050919050565b60006020820190508181036000830152610fc981610e31565b9050919050565b60006020820190508181036000830152610fe981610e54565b9050919050565b6000602082019050818103600083015261100981610e77565b9050919050565b6000602082019050818103600083015261102981610e9a565b9050919050565b6000602082019050818103600083015261104981610ebd565b9050919050565b6000602082019050818103600083015261106981610ee0565b9050919050565b6000602082019050818103600083015261108981610f03565b9050919050565b60006020820190506110a56000830184610f26565b92915050565b60006110b56110c6565b90506110c18282611228565b919050565b6000604051905090565b600067ffffffffffffffff8211156110eb576110ea61132f565b5b6110f482611372565b9050602081019050919050565b600082825260208201905092915050565b600061111d826111dd565b9150611128836111dd565b9250827fffffffffffffffffffffffffffffffffffffffffffffffffffffffffffffffff0382111561115d5761115c6112a2565b5b828201905092915050565b6000611173826111dd565b915061117e836111dd565b92508261118e5761118d6112d1565b5b828204905092915050565b60006111a4826111bd565b9050919050565b60006111b6826111bd565b9050919050565b600073ffffffffffffffffffffffffffffffffffffffff82169050919050565b6000819050919050565b82818337600083830152505050565b6000600282049050600182168061120e57607f821691505b6020821081141561122257611221611300565b5b50919050565b61123182611372565b810181811067ffffffffffffffff821117156112505761124f61132f565b5b80604052505050565b6000611264826111dd565b91507fffffffffffffffffffffffffffffffffffffffffffffffffffffffffffffffff821415611297576112966112a2565b5b600182019050919050565b7f4e487b7100000000000000000000000000000000000000000000000000000000600052601160045260246000fd5b7f4e487b7100000000000000000000000000000000000000000000000000000000600052601260045260246000fd5b7f4e487b7100000000000000000000000000000000000000000000000000000000600052602260045260246000fd5b7f4e487b7100000000000000000000000000000000000000000000000000000000600052604160045260246000fd5b600080fd5b600080fd5b600080fd5b600080fd5b6000601f19601f8301169050919050565b7f4d616a6f7269747920537570706f7274206d61726b20686173206e6f7420626560008201527f656e2063726f7373656400000000000000000000000000000000000000000000602082015250565b7f4d696e696d756d20436f6e747269627574696f6e20686173206e6f74206d6574600082015250565b7f446561646c696e65206861732070617373656400000000000000000000000000600082015250565b7f4f6e6c79204d616e616765722063616e2063616c6c20746869732066756e637460008201527f696f6e0000000000000000000000000000000000000000000000000000000000602082015250565b7f4e6f74206120636f6e7472696275746f72000000000000000000000000000000600082015250565b7f416c72656164792044697374726962757465642074686520616d6f756e740000600082015250565b7f53686f756c64206265206120436f6e7472696275746f72000000000000000000600082015250565b7f446561646c696e6520686173206e6f7420657870697265642079657421000000600082015250565b7f54617267657420686173206e6f74206d65740000000000000000000000000000600082015250565b7f596f75206861766520616c726561647920766f74656400000000000000000000600082015250565b61157281611199565b811461157d57600080fd5b50565b611589816111ab565b811461159457600080fd5b50565b6115a0816111dd565b81146115ab57600080fd5b5056fea2646970667358221220fa1cc406a944622a7785878adf988c597d20bdaf849f34e23f2c18b1a684e6be64736f6c63430008070033",
					"opcodes": "PUSH1 0x80 PUSH1 0x40 MSTORE CALLVALUE DUP1 ISZERO PUSH3 0x11 JUMPI PUSH1 0x0 DUP1 REVERT JUMPDEST POP PUSH1 0x40 MLOAD PUSH3 0x17AA CODESIZE SUB DUP1 PUSH3 0x17AA DUP4 CODECOPY DUP2 DUP2 ADD PUSH1 0x40 MSTORE DUP2 ADD SWAP1 PUSH3 0x37 SWAP2 SWAP1 PUSH3 0xBA JUMP JUMPDEST DUP2 PUSH1 0x4 DUP2 SWAP1 SSTORE POP DUP1 TIMESTAMP PUSH3 0x4C SWAP2 SWAP1 PUSH3 0x101 JUMP JUMPDEST PUSH1 0x3 DUP2 SWAP1 SSTORE POP PUSH1 0x64 PUSH1 0x2 DUP2 SWAP1 SSTORE POP CALLER PUSH1 0x1 PUSH1 0x0 PUSH2 0x100 EXP DUP2 SLOAD DUP2 PUSH20 0xFFFFFFFFFFFFFFFFFFFFFFFFFFFFFFFFFFFFFFFF MUL NOT AND SWAP1 DUP4 PUSH20 0xFFFFFFFFFFFFFFFFFFFFFFFFFFFFFFFFFFFFFFFF AND MUL OR SWAP1 SSTORE POP POP POP PUSH3 0x1B6 JUMP JUMPDEST PUSH1 0x0 DUP2 MLOAD SWAP1 POP PUSH3 0xB4 DUP2 PUSH3 0x19C JUMP JUMPDEST SWAP3 SWAP2 POP POP JUMP JUMPDEST PUSH1 0x0 DUP1 PUSH1 0x40 DUP4 DUP6 SUB SLT ISZERO PUSH3 0xD4 JUMPI PUSH3 0xD3 PUSH3 0x197 JUMP JUMPDEST JUMPDEST PUSH1 0x0 PUSH3 0xE4 DUP6 DUP3 DUP7 ADD PUSH3 0xA3 JUMP JUMPDEST SWAP3 POP POP PUSH1 0x20 PUSH3 0xF7 DUP6 DUP3 DUP7 ADD PUSH3 0xA3 JUMP JUMPDEST SWAP2 POP POP SWAP3 POP SWAP3 SWAP1 POP JUMP JUMPDEST PUSH1 0x0 PUSH3 0x10E DUP3 PUSH3 0x15E JUMP JUMPDEST SWAP2 POP PUSH3 0x11B DUP4 PUSH3 0x15E JUMP JUMPDEST SWAP3 POP DUP3 PUSH32 0xFFFFFFFFFFFFFFFFFFFFFFFFFFFFFFFFFFFFFFFFFFFFFFFFFFFFFFFFFFFFFFFF SUB DUP3 GT ISZERO PUSH3 0x153 JUMPI PUSH3 0x152 PUSH3 0x168 JUMP JUMPDEST JUMPDEST DUP3 DUP3 ADD SWAP1 POP SWAP3 SWAP2 POP POP JUMP JUMPDEST PUSH1 0x0 DUP2 SWAP1 POP SWAP2 SWAP1 POP JUMP JUMPDEST PUSH32 0x4E487B7100000000000000000000000000000000000000000000000000000000 PUSH1 0x0 MSTORE PUSH1 0x11 PUSH1 0x4 MSTORE PUSH1 0x24 PUSH1 0x0 REVERT JUMPDEST PUSH1 0x0 DUP1 REVERT JUMPDEST PUSH3 0x1A7 DUP2 PUSH3 0x15E JUMP JUMPDEST DUP2 EQ PUSH3 0x1B3 JUMPI PUSH1 0x0 DUP1 REVERT JUMPDEST POP JUMP JUMPDEST PUSH2 0x15E4 DUP1 PUSH3 0x1C6 PUSH1 0x0 CODECOPY PUSH1 0x0 RETURN INVALID PUSH1 0x80 PUSH1 0x40 MSTORE PUSH1 0x4 CALLDATASIZE LT PUSH2 0xDD JUMPI PUSH1 0x0 CALLDATALOAD PUSH1 0xE0 SHR DUP1 PUSH4 0x5114CB52 GT PUSH2 0x7F JUMPI DUP1 PUSH4 0xBEF3A083 GT PUSH2 0x59 JUMPI DUP1 PUSH4 0xBEF3A083 EQ PUSH2 0x267 JUMPI DUP1 PUSH4 0xC1F11B4C EQ PUSH2 0x292 JUMPI DUP1 PUSH4 0xD4B83992 EQ PUSH2 0x2BD JUMPI DUP1 PUSH4 0xDB638F0B EQ PUSH2 0x2E8 JUMPI PUSH2 0xDD JUMP JUMPDEST DUP1 PUSH4 0x5114CB52 EQ PUSH2 0x1E8 JUMPI DUP1 PUSH4 0x6F9FB98A EQ PUSH2 0x211 JUMPI DUP1 PUSH4 0xAAFFADF3 EQ PUSH2 0x23C JUMPI PUSH2 0xDD JUMP JUMPDEST DUP1 PUSH4 0x1F6D4942 GT PUSH2 0xBB JUMPI DUP1 PUSH4 0x1F6D4942 EQ PUSH2 0x12C JUMPI DUP1 PUSH4 0x481C6A75 EQ PUSH2 0x169 JUMPI DUP1 PUSH4 0x4CB6F4A5 EQ PUSH2 0x194 JUMPI DUP1 PUSH4 0x4E260F6F EQ PUSH2 0x1BD JUMPI PUSH2 0xDD JUMP JUMPDEST DUP1 PUSH4 0xE29DF22 EQ PUSH2 0xE2 JUMPI DUP1 PUSH4 0xFF0A4DF EQ PUSH2 0xEC JUMPI DUP1 PUSH4 0x1B16BB5C EQ PUSH2 0x103 JUMPI JUMPDEST PUSH1 0x0 DUP1 REVERT JUMPDEST PUSH2 0xEA PUSH2 0x313 JUMP JUMPDEST STOP JUMPDEST CALLVALUE DUP1 ISZERO PUSH2 0xF8 JUMPI PUSH1 0x0 DUP1 REVERT JUMPDEST POP PUSH2 0x101 PUSH2 0x46C JUMP JUMPDEST STOP JUMPDEST CALLVALUE DUP1 ISZERO PUSH2 0x10F JUMPI PUSH1 0x0 DUP1 REVERT JUMPDEST POP PUSH2 0x12A PUSH1 0x4 DUP1 CALLDATASIZE SUB DUP2 ADD SWAP1 PUSH2 0x125 SWAP2 SWAP1 PUSH2 0xD1D JUMP JUMPDEST PUSH2 0x648 JUMP JUMPDEST STOP JUMPDEST CALLVALUE DUP1 ISZERO PUSH2 0x138 JUMPI PUSH1 0x0 DUP1 REVERT JUMPDEST POP PUSH2 0x153 PUSH1 0x4 DUP1 CALLDATASIZE SUB DUP2 ADD SWAP1 PUSH2 0x14E SWAP2 SWAP1 PUSH2 0xCF0 JUMP JUMPDEST PUSH2 0x79B JUMP JUMPDEST PUSH1 0x40 MLOAD PUSH2 0x160 SWAP2 SWAP1 PUSH2 0x1090 JUMP JUMPDEST PUSH1 0x40 MLOAD DUP1 SWAP2 SUB SWAP1 RETURN JUMPDEST CALLVALUE DUP1 ISZERO PUSH2 0x175 JUMPI PUSH1 0x0 DUP1 REVERT JUMPDEST POP PUSH2 0x17E PUSH2 0x7B3 JUMP JUMPDEST PUSH1 0x40 MLOAD PUSH2 0x18B SWAP2 SWAP1 PUSH2 0xF35 JUMP JUMPDEST PUSH1 0x40 MLOAD DUP1 SWAP2 SUB SWAP1 RETURN JUMPDEST CALLVALUE DUP1 ISZERO PUSH2 0x1A0 JUMPI PUSH1 0x0 DUP1 REVERT JUMPDEST POP PUSH2 0x1BB PUSH1 0x4 DUP1 CALLDATASIZE SUB DUP2 ADD SWAP1 PUSH2 0x1B6 SWAP2 SWAP1 PUSH2 0xD8C JUMP JUMPDEST PUSH2 0x7D9 JUMP JUMPDEST STOP JUMPDEST CALLVALUE DUP1 ISZERO PUSH2 0x1C9 JUMPI PUSH1 0x0 DUP1 REVERT JUMPDEST POP PUSH2 0x1D2 PUSH2 0x97E JUMP JUMPDEST PUSH1 0x40 MLOAD PUSH2 0x1DF SWAP2 SWAP1 PUSH2 0x1090 JUMP JUMPDEST PUSH1 0x40 MLOAD DUP1 SWAP2 SUB SWAP1 RETURN JUMPDEST CALLVALUE DUP1 ISZERO PUSH2 0x1F4 JUMPI PUSH1 0x0 DUP1 REVERT JUMPDEST POP PUSH2 0x20F PUSH1 0x4 DUP1 CALLDATASIZE SUB DUP2 ADD SWAP1 PUSH2 0x20A SWAP2 SWAP1 PUSH2 0xD8C JUMP JUMPDEST PUSH2 0x984 JUMP JUMPDEST STOP JUMPDEST CALLVALUE DUP1 ISZERO PUSH2 0x21D JUMPI PUSH1 0x0 DUP1 REVERT JUMPDEST POP PUSH2 0x226 PUSH2 0xB78 JUMP JUMPDEST PUSH1 0x40 MLOAD PUSH2 0x233 SWAP2 SWAP1 PUSH2 0x1090 JUMP JUMPDEST PUSH1 0x40 MLOAD DUP1 SWAP2 SUB SWAP1 RETURN JUMPDEST CALLVALUE DUP1 ISZERO PUSH2 0x248 JUMPI PUSH1 0x0 DUP1 REVERT JUMPDEST POP PUSH2 0x251 PUSH2 0xB80 JUMP JUMPDEST PUSH1 0x40 MLOAD PUSH2 0x25E SWAP2 SWAP1 PUSH2 0x1090 JUMP JUMPDEST PUSH1 0x40 MLOAD DUP1 SWAP2 SUB SWAP1 RETURN JUMPDEST CALLVALUE DUP1 ISZERO PUSH2 0x273 JUMPI PUSH1 0x0 DUP1 REVERT JUMPDEST POP PUSH2 0x27C PUSH2 0xB86 JUMP JUMPDEST PUSH1 0x40 MLOAD PUSH2 0x289 SWAP2 SWAP1 PUSH2 0x1090 JUMP JUMPDEST PUSH1 0x40 MLOAD DUP1 SWAP2 SUB SWAP1 RETURN JUMPDEST CALLVALUE DUP1 ISZERO PUSH2 0x29E JUMPI PUSH1 0x0 DUP1 REVERT JUMPDEST POP PUSH2 0x2A7 PUSH2 0xB8C JUMP JUMPDEST PUSH1 0x40 MLOAD PUSH2 0x2B4 SWAP2 SWAP1 PUSH2 0x1090 JUMP JUMPDEST PUSH1 0x40 MLOAD DUP1 SWAP2 SUB SWAP1 RETURN JUMPDEST CALLVALUE DUP1 ISZERO PUSH2 0x2C9 JUMPI PUSH1 0x0 DUP1 REVERT JUMPDEST POP PUSH2 0x2D2 PUSH2 0xB92 JUMP JUMPDEST PUSH1 0x40 MLOAD PUSH2 0x2DF SWAP2 SWAP1 PUSH2 0x1090 JUMP JUMPDEST PUSH1 0x40 MLOAD DUP1 SWAP2 SUB SWAP1 RETURN JUMPDEST CALLVALUE DUP1 ISZERO PUSH2 0x2F4 JUMPI PUSH1 0x0 DUP1 REVERT JUMPDEST POP PUSH2 0x2FD PUSH2 0xB98 JUMP JUMPDEST PUSH1 0x40 MLOAD PUSH2 0x30A SWAP2 SWAP1 PUSH2 0x1090 JUMP JUMPDEST PUSH1 0x40 MLOAD DUP1 SWAP2 SUB SWAP1 RETURN JUMPDEST PUSH1 0x3 SLOAD TIMESTAMP LT PUSH2 0x357 JUMPI PUSH1 0x40 MLOAD PUSH32 0x8C379A000000000000000000000000000000000000000000000000000000000 DUP2 MSTORE PUSH1 0x4 ADD PUSH2 0x34E SWAP1 PUSH2 0xF90 JUMP JUMPDEST PUSH1 0x40 MLOAD DUP1 SWAP2 SUB SWAP1 REVERT JUMPDEST PUSH1 0x2 SLOAD CALLVALUE LT ISZERO PUSH2 0x39C JUMPI PUSH1 0x40 MLOAD PUSH32 0x8C379A000000000000000000000000000000000000000000000000000000000 DUP2 MSTORE PUSH1 0x4 ADD PUSH2 0x393 SWAP1 PUSH2 0xF70 JUMP JUMPDEST PUSH1 0x40 MLOAD DUP1 SWAP2 SUB SWAP1 REVERT JUMPDEST PUSH1 0x0 DUP1 PUSH1 0x0 CALLER PUSH20 0xFFFFFFFFFFFFFFFFFFFFFFFFFFFFFFFFFFFFFFFF AND PUSH20 0xFFFFFFFFFFFFFFFFFFFFFFFFFFFFFFFFFFFFFFFF AND DUP2 MSTORE PUSH1 0x20 ADD SWAP1 DUP2 MSTORE PUSH1 0x20 ADD PUSH1 0x0 KECCAK256 SLOAD EQ ISZERO PUSH2 0x3FC JUMPI PUSH1 0x6 PUSH1 0x0 DUP2 SLOAD DUP1 SWAP3 SWAP2 SWAP1 PUSH2 0x3F6 SWAP1 PUSH2 0x1259 JUMP JUMPDEST SWAP2 SWAP1 POP SSTORE POP JUMPDEST CALLVALUE PUSH1 0x0 DUP1 CALLER PUSH20 0xFFFFFFFFFFFFFFFFFFFFFFFFFFFFFFFFFFFFFFFF AND PUSH20 0xFFFFFFFFFFFFFFFFFFFFFFFFFFFFFFFFFFFFFFFF AND DUP2 MSTORE PUSH1 0x20 ADD SWAP1 DUP2 MSTORE PUSH1 0x20 ADD PUSH1 0x0 KECCAK256 PUSH1 0x0 DUP3 DUP3 SLOAD PUSH2 0x44A SWAP2 SWAP1 PUSH2 0x1112 JUMP JUMPDEST SWAP3 POP POP DUP2 SWAP1 SSTORE POP CALLVALUE PUSH1 0x5 PUSH1 0x0 DUP3 DUP3 SLOAD PUSH2 0x463 SWAP2 SWAP1 PUSH2 0x1112 JUMP JUMPDEST SWAP3 POP POP DUP2 SWAP1 SSTORE POP JUMP JUMPDEST PUSH1 0x3 SLOAD TIMESTAMP GT PUSH2 0x4B0 JUMPI PUSH1 0x40 MLOAD PUSH32 0x8C379A000000000000000000000000000000000000000000000000000000000 DUP2 MSTORE PUSH1 0x4 ADD PUSH2 0x4A7 SWAP1 PUSH2 0x1030 JUMP JUMPDEST PUSH1 0x40 MLOAD DUP1 SWAP2 SUB SWAP1 REVERT JUMPDEST PUSH1 0x4 SLOAD PUSH1 0x5 SLOAD LT PUSH2 0x4F6 JUMPI PUSH1 0x40 MLOAD PUSH32 0x8C379A000000000000000000000000000000000000000000000000000000000 DUP2 MSTORE PUSH1 0x4 ADD PUSH2 0x4ED SWAP1 PUSH2 0x1050 JUMP JUMPDEST PUSH1 0x40 MLOAD DUP1 SWAP2 SUB SWAP1 REVERT JUMPDEST PUSH1 0x0 DUP1 PUSH1 0x0 CALLER PUSH20 0xFFFFFFFFFFFFFFFFFFFFFFFFFFFFFFFFFFFFFFFF AND PUSH20 0xFFFFFFFFFFFFFFFFFFFFFFFFFFFFFFFFFFFFFFFF AND DUP2 MSTORE PUSH1 0x20 ADD SWAP1 DUP2 MSTORE PUSH1 0x20 ADD PUSH1 0x0 KECCAK256 SLOAD GT PUSH2 0x577 JUMPI PUSH1 0x40 MLOAD PUSH32 0x8C379A000000000000000000000000000000000000000000000000000000000 DUP2 MSTORE PUSH1 0x4 ADD PUSH2 0x56E SWAP1 PUSH2 0x1010 JUMP JUMPDEST PUSH1 0x40 MLOAD DUP1 SWAP2 SUB SWAP1 REVERT JUMPDEST PUSH1 0x0 CALLER SWAP1 POP DUP1 PUSH20 0xFFFFFFFFFFFFFFFFFFFFFFFFFFFFFFFFFFFFFFFF AND PUSH2 0x8FC PUSH1 0x0 DUP1 CALLER PUSH20 0xFFFFFFFFFFFFFFFFFFFFFFFFFFFFFFFFFFFFFFFF AND PUSH20 0xFFFFFFFFFFFFFFFFFFFFFFFFFFFFFFFFFFFFFFFF AND DUP2 MSTORE PUSH1 0x20 ADD SWAP1 DUP2 MSTORE PUSH1 0x20 ADD PUSH1 0x0 KECCAK256 SLOAD SWAP1 DUP2 ISZERO MUL SWAP1 PUSH1 0x40 MLOAD PUSH1 0x0 PUSH1 0x40 MLOAD DUP1 DUP4 SUB DUP2 DUP6 DUP9 DUP9 CALL SWAP4 POP POP POP POP ISZERO DUP1 ISZERO PUSH2 0x600 JUMPI RETURNDATASIZE PUSH1 0x0 DUP1 RETURNDATACOPY RETURNDATASIZE PUSH1 0x0 REVERT JUMPDEST POP PUSH1 0x0 DUP1 PUSH1 0x0 CALLER PUSH20 0xFFFFFFFFFFFFFFFFFFFFFFFFFFFFFFFFFFFFFFFF AND PUSH20 0xFFFFFFFFFFFFFFFFFFFFFFFFFFFFFFFFFFFFFFFF AND DUP2 MSTORE PUSH1 0x20 ADD SWAP1 DUP2 MSTORE PUSH1 0x20 ADD PUSH1 0x0 KECCAK256 DUP2 SWAP1 SSTORE POP POP JUMP JUMPDEST PUSH1 0x1 PUSH1 0x0 SWAP1 SLOAD SWAP1 PUSH2 0x100 EXP SWAP1 DIV PUSH20 0xFFFFFFFFFFFFFFFFFFFFFFFFFFFFFFFFFFFFFFFF AND PUSH20 0xFFFFFFFFFFFFFFFFFFFFFFFFFFFFFFFFFFFFFFFF AND CALLER PUSH20 0xFFFFFFFFFFFFFFFFFFFFFFFFFFFFFFFFFFFFFFFF AND EQ PUSH2 0x6D8 JUMPI PUSH1 0x40 MLOAD PUSH32 0x8C379A000000000000000000000000000000000000000000000000000000000 DUP2 MSTORE PUSH1 0x4 ADD PUSH2 0x6CF SWAP1 PUSH2 0xFB0 JUMP JUMPDEST PUSH1 0x40 MLOAD DUP1 SWAP2 SUB SWAP1 REVERT JUMPDEST PUSH1 0x0 PUSH1 0x7 PUSH1 0x0 PUSH1 0x8 SLOAD DUP2 MSTORE PUSH1 0x20 ADD SWAP1 DUP2 MSTORE PUSH1 0x20 ADD PUSH1 0x0 KECCAK256 SWAP1 POP PUSH1 0x8 PUSH1 0x0 DUP2 SLOAD DUP1 SWAP3 SWAP2 SWAP1 PUSH2 0x704 SWAP1 PUSH2 0x1259 JUMP JUMPDEST SWAP2 SWAP1 POP SSTORE POP DUP4 DUP2 PUSH1 0x0 ADD SWAP1 DUP1 MLOAD SWAP1 PUSH1 0x20 ADD SWAP1 PUSH2 0x721 SWAP3 SWAP2 SWAP1 PUSH2 0xB9E JUMP JUMPDEST POP DUP3 DUP2 PUSH1 0x1 ADD PUSH1 0x0 PUSH2 0x100 EXP DUP2 SLOAD DUP2 PUSH20 0xFFFFFFFFFFFFFFFFFFFFFFFFFFFFFFFFFFFFFFFF MUL NOT AND SWAP1 DUP4 PUSH20 0xFFFFFFFFFFFFFFFFFFFFFFFFFFFFFFFFFFFFFFFF AND MUL OR SWAP1 SSTORE POP DUP2 DUP2 PUSH1 0x2 ADD DUP2 SWAP1 SSTORE POP PUSH1 0x0 DUP2 PUSH1 0x3 ADD PUSH1 0x0 PUSH2 0x100 EXP DUP2 SLOAD DUP2 PUSH1 0xFF MUL NOT AND SWAP1 DUP4 ISZERO ISZERO MUL OR SWAP1 SSTORE POP PUSH1 0x0 DUP2 PUSH1 0x4 ADD DUP2 SWAP1 SSTORE POP POP POP POP POP JUMP JUMPDEST PUSH1 0x0 PUSH1 0x20 MSTORE DUP1 PUSH1 0x0 MSTORE PUSH1 0x40 PUSH1 0x0 KECCAK256 PUSH1 0x0 SWAP2 POP SWAP1 POP SLOAD DUP2 JUMP JUMPDEST PUSH1 0x1 PUSH1 0x0 SWAP1 SLOAD SWAP1 PUSH2 0x100 EXP SWAP1 DIV PUSH20 0xFFFFFFFFFFFFFFFFFFFFFFFFFFFFFFFFFFFFFFFF AND DUP2 JUMP JUMPDEST PUSH1 0x0 DUP1 PUSH1 0x0 CALLER PUSH20 0xFFFFFFFFFFFFFFFFFFFFFFFFFFFFFFFFFFFFFFFF AND PUSH20 0xFFFFFFFFFFFFFFFFFFFFFFFFFFFFFFFFFFFFFFFF AND DUP2 MSTORE PUSH1 0x20 ADD SWAP1 DUP2 MSTORE PUSH1 0x20 ADD PUSH1 0x0 KECCAK256 SLOAD GT PUSH2 0x85A JUMPI PUSH1 0x40 MLOAD PUSH32 0x8C379A000000000000000000000000000000000000000000000000000000000 DUP2 MSTORE PUSH1 0x4 ADD PUSH2 0x851 SWAP1 PUSH2 0xFD0 JUMP JUMPDEST PUSH1 0x40 MLOAD DUP1 SWAP2 SUB SWAP1 REVERT JUMPDEST PUSH1 0x0 PUSH1 0x7 PUSH1 0x0 DUP4 DUP2 MSTORE PUSH1 0x20 ADD SWAP1 DUP2 MSTORE PUSH1 0x20 ADD PUSH1 0x0 KECCAK256 SWAP1 POP PUSH1 0x0 ISZERO ISZERO DUP2 PUSH1 0x5 ADD PUSH1 0x0 CALLER PUSH20 0xFFFFFFFFFFFFFFFFFFFFFFFFFFFFFFFFFFFFFFFF AND PUSH20 0xFFFFFFFFFFFFFFFFFFFFFFFFFFFFFFFFFFFFFFFF AND DUP2 MSTORE PUSH1 0x20 ADD SWAP1 DUP2 MSTORE PUSH1 0x20 ADD PUSH1 0x0 KECCAK256 PUSH1 0x0 SWAP1 SLOAD SWAP1 PUSH2 0x100 EXP SWAP1 DIV PUSH1 0xFF AND ISZERO ISZERO EQ PUSH2 0x906 JUMPI PUSH1 0x40 MLOAD PUSH32 0x8C379A000000000000000000000000000000000000000000000000000000000 DUP2 MSTORE PUSH1 0x4 ADD PUSH2 0x8FD SWAP1 PUSH2 0x1070 JUMP JUMPDEST PUSH1 0x40 MLOAD DUP1 SWAP2 SUB SWAP1 REVERT JUMPDEST PUSH1 0x1 DUP2 PUSH1 0x5 ADD PUSH1 0x0 CALLER PUSH20 0xFFFFFFFFFFFFFFFFFFFFFFFFFFFFFFFFFFFFFFFF AND PUSH20 0xFFFFFFFFFFFFFFFFFFFFFFFFFFFFFFFFFFFFFFFF AND DUP2 MSTORE PUSH1 0x20 ADD SWAP1 DUP2 MSTORE PUSH1 0x20 ADD PUSH1 0x0 KECCAK256 PUSH1 0x0 PUSH2 0x100 EXP DUP2 SLOAD DUP2 PUSH1 0xFF MUL NOT AND SWAP1 DUP4 ISZERO ISZERO MUL OR SWAP1 SSTORE POP DUP1 PUSH1 0x4 ADD PUSH1 0x0 DUP2 SLOAD DUP1 SWAP3 SWAP2 SWAP1 PUSH2 0x975 SWAP1 PUSH2 0x1259 JUMP JUMPDEST SWAP2 SWAP1 POP SSTORE POP POP POP JUMP JUMPDEST PUSH1 0x6 SLOAD DUP2 JUMP JUMPDEST PUSH1 0x1 PUSH1 0x0 SWAP1 SLOAD SWAP1 PUSH2 0x100 EXP SWAP1 DIV PUSH20 0xFFFFFFFFFFFFFFFFFFFFFFFFFFFFFFFFFFFFFFFF AND PUSH20 0xFFFFFFFFFFFFFFFFFFFFFFFFFFFFFFFFFFFFFFFF AND CALLER PUSH20 0xFFFFFFFFFFFFFFFFFFFFFFFFFFFFFFFFFFFFFFFF AND EQ PUSH2 0xA14 JUMPI PUSH1 0x40 MLOAD PUSH32 0x8C379A000000000000000000000000000000000000000000000000000000000 DUP2 MSTORE PUSH1 0x4 ADD PUSH2 0xA0B SWAP1 PUSH2 0xFB0 JUMP JUMPDEST PUSH1 0x40 MLOAD DUP1 SWAP2 SUB SWAP1 REVERT JUMPDEST PUSH1 0x4 SLOAD PUSH1 0x5 SLOAD LT ISZERO PUSH2 0xA25 JUMPI PUSH1 0x0 DUP1 REVERT JUMPDEST PUSH1 0x0 PUSH1 0x7 PUSH1 0x0 DUP4 DUP2 MSTORE PUSH1 0x20 ADD SWAP1 DUP2 MSTORE PUSH1 0x20 ADD PUSH1 0x0 KECCAK256 SWAP1 POP PUSH1 0x0 ISZERO ISZERO DUP2 PUSH1 0x3 ADD PUSH1 0x0 SWAP1 SLOAD SWAP1 PUSH2 0x100 EXP SWAP1 DIV PUSH1 0xFF AND ISZERO ISZERO EQ PUSH2 0xA94 JUMPI PUSH1 0x40 MLOAD PUSH32 0x8C379A000000000000000000000000000000000000000000000000000000000 DUP2 MSTORE PUSH1 0x4 ADD PUSH2 0xA8B SWAP1 PUSH2 0xFF0 JUMP JUMPDEST PUSH1 0x40 MLOAD DUP1 SWAP2 SUB SWAP1 REVERT JUMPDEST PUSH1 0x2 PUSH1 0x6 SLOAD PUSH2 0xAA3 SWAP2 SWAP1 PUSH2 0x1168 JUMP JUMPDEST DUP2 PUSH1 0x4 ADD SLOAD GT PUSH2 0xAE8 JUMPI PUSH1 0x40 MLOAD PUSH32 0x8C379A000000000000000000000000000000000000000000000000000000000 DUP2 MSTORE PUSH1 0x4 ADD PUSH2 0xADF SWAP1 PUSH2 0xF50 JUMP JUMPDEST PUSH1 0x40 MLOAD DUP1 SWAP2 SUB SWAP1 REVERT JUMPDEST DUP1 PUSH1 0x1 ADD PUSH1 0x0 SWAP1 SLOAD SWAP1 PUSH2 0x100 EXP SWAP1 DIV PUSH20 0xFFFFFFFFFFFFFFFFFFFFFFFFFFFFFFFFFFFFFFFF AND PUSH20 0xFFFFFFFFFFFFFFFFFFFFFFFFFFFFFFFFFFFFFFFF AND PUSH2 0x8FC DUP3 PUSH1 0x2 ADD SLOAD SWAP1 DUP2 ISZERO MUL SWAP1 PUSH1 0x40 MLOAD PUSH1 0x0 PUSH1 0x40 MLOAD DUP1 DUP4 SUB DUP2 DUP6 DUP9 DUP9 CALL SWAP4 POP POP POP POP ISZERO DUP1 ISZERO PUSH2 0xB56 JUMPI RETURNDATASIZE PUSH1 0x0 DUP1 RETURNDATACOPY RETURNDATASIZE PUSH1 0x0 REVERT JUMPDEST POP PUSH1 0x1 DUP2 PUSH1 0x3 ADD PUSH1 0x0 PUSH2 0x100 EXP DUP2 SLOAD DUP2 PUSH1 0xFF MUL NOT AND SWAP1 DUP4 ISZERO ISZERO MUL OR SWAP1 SSTORE POP POP POP JUMP JUMPDEST PUSH1 0x0 SELFBALANCE SWAP1 POP SWAP1 JUMP JUMPDEST PUSH1 0x2 SLOAD DUP2 JUMP JUMPDEST PUSH1 0x3 SLOAD DUP2 JUMP JUMPDEST PUSH1 0x8 SLOAD DUP2 JUMP JUMPDEST PUSH1 0x4 SLOAD DUP2 JUMP JUMPDEST PUSH1 0x5 SLOAD DUP2 JUMP JUMPDEST DUP3 DUP1 SLOAD PUSH2 0xBAA SWAP1 PUSH2 0x11F6 JUMP JUMPDEST SWAP1 PUSH1 0x0 MSTORE PUSH1 0x20 PUSH1 0x0 KECCAK256 SWAP1 PUSH1 0x1F ADD PUSH1 0x20 SWAP1 DIV DUP2 ADD SWAP3 DUP3 PUSH2 0xBCC JUMPI PUSH1 0x0 DUP6 SSTORE PUSH2 0xC13 JUMP JUMPDEST DUP3 PUSH1 0x1F LT PUSH2 0xBE5 JUMPI DUP1 MLOAD PUSH1 0xFF NOT AND DUP4 DUP1 ADD OR DUP6 SSTORE PUSH2 0xC13 JUMP JUMPDEST DUP3 DUP1 ADD PUSH1 0x1 ADD DUP6 SSTORE DUP3 ISZERO PUSH2 0xC13 JUMPI SWAP2 DUP3 ADD JUMPDEST DUP3 DUP2 GT ISZERO PUSH2 0xC12 JUMPI DUP3 MLOAD DUP3 SSTORE SWAP2 PUSH1 0x20 ADD SWAP2 SWAP1 PUSH1 0x1 ADD SWAP1 PUSH2 0xBF7 JUMP JUMPDEST JUMPDEST POP SWAP1 POP PUSH2 0xC20 SWAP2 SWAP1 PUSH2 0xC24 JUMP JUMPDEST POP SWAP1 JUMP JUMPDEST JUMPDEST DUP1 DUP3 GT ISZERO PUSH2 0xC3D JUMPI PUSH1 0x0 DUP2 PUSH1 0x0 SWAP1 SSTORE POP PUSH1 0x1 ADD PUSH2 0xC25 JUMP JUMPDEST POP SWAP1 JUMP JUMPDEST PUSH1 0x0 PUSH2 0xC54 PUSH2 0xC4F DUP5 PUSH2 0x10D0 JUMP JUMPDEST PUSH2 0x10AB JUMP JUMPDEST SWAP1 POP DUP3 DUP2 MSTORE PUSH1 0x20 DUP2 ADD DUP5 DUP5 DUP5 ADD GT ISZERO PUSH2 0xC70 JUMPI PUSH2 0xC6F PUSH2 0x1363 JUMP JUMPDEST JUMPDEST PUSH2 0xC7B DUP5 DUP3 DUP6 PUSH2 0x11E7 JUMP JUMPDEST POP SWAP4 SWAP3 POP POP POP JUMP JUMPDEST PUSH1 0x0 DUP2 CALLDATALOAD SWAP1 POP PUSH2 0xC92 DUP2 PUSH2 0x1569 JUMP JUMPDEST SWAP3 SWAP2 POP POP JUMP JUMPDEST PUSH1 0x0 DUP2 CALLDATALOAD SWAP1 POP PUSH2 0xCA7 DUP2 PUSH2 0x1580 JUMP JUMPDEST SWAP3 SWAP2 POP POP JUMP JUMPDEST PUSH1 0x0 DUP3 PUSH1 0x1F DUP4 ADD SLT PUSH2 0xCC2 JUMPI PUSH2 0xCC1 PUSH2 0x135E JUMP JUMPDEST JUMPDEST DUP2 CALLDATALOAD PUSH2 0xCD2 DUP5 DUP3 PUSH1 0x20 DUP7 ADD PUSH2 0xC41 JUMP JUMPDEST SWAP2 POP POP SWAP3 SWAP2 POP POP JUMP JUMPDEST PUSH1 0x0 DUP2 CALLDATALOAD SWAP1 POP PUSH2 0xCEA DUP2 PUSH2 0x1597 JUMP JUMPDEST SWAP3 SWAP2 POP POP JUMP JUMPDEST PUSH1 0x0 PUSH1 0x20 DUP3 DUP5 SUB SLT ISZERO PUSH2 0xD06 JUMPI PUSH2 0xD05 PUSH2 0x136D JUMP JUMPDEST JUMPDEST PUSH1 0x0 PUSH2 0xD14 DUP5 DUP3 DUP6 ADD PUSH2 0xC83 JUMP JUMPDEST SWAP2 POP POP SWAP3 SWAP2 POP POP JUMP JUMPDEST PUSH1 0x0 DUP1 PUSH1 0x0 PUSH1 0x60 DUP5 DUP7 SUB SLT ISZERO PUSH2 0xD36 JUMPI PUSH2 0xD35 PUSH2 0x136D JUMP JUMPDEST JUMPDEST PUSH1 0x0 DUP5 ADD CALLDATALOAD PUSH8 0xFFFFFFFFFFFFFFFF DUP2 GT ISZERO PUSH2 0xD54 JUMPI PUSH2 0xD53 PUSH2 0x1368 JUMP JUMPDEST JUMPDEST PUSH2 0xD60 DUP7 DUP3 DUP8 ADD PUSH2 0xCAD JUMP JUMPDEST SWAP4 POP POP PUSH1 0x20 PUSH2 0xD71 DUP7 DUP3 DUP8 ADD PUSH2 0xC98 JUMP JUMPDEST SWAP3 POP POP PUSH1 0x40 PUSH2 0xD82 DUP7 DUP3 DUP8 ADD PUSH2 0xCDB JUMP JUMPDEST SWAP2 POP POP SWAP3 POP SWAP3 POP SWAP3 JUMP JUMPDEST PUSH1 0x0 PUSH1 0x20 DUP3 DUP5 SUB SLT ISZERO PUSH2 0xDA2 JUMPI PUSH2 0xDA1 PUSH2 0x136D JUMP JUMPDEST JUMPDEST PUSH1 0x0 PUSH2 0xDB0 DUP5 DUP3 DUP6 ADD PUSH2 0xCDB JUMP JUMPDEST SWAP2 POP POP SWAP3 SWAP2 POP POP JUMP JUMPDEST PUSH2 0xDC2 DUP2 PUSH2 0x1199 JUMP JUMPDEST DUP3 MSTORE POP POP JUMP JUMPDEST PUSH1 0x0 PUSH2 0xDD5 PUSH1 0x2A DUP4 PUSH2 0x1101 JUMP JUMPDEST SWAP2 POP PUSH2 0xDE0 DUP3 PUSH2 0x1383 JUMP JUMPDEST PUSH1 0x40 DUP3 ADD SWAP1 POP SWAP2 SWAP1 POP JUMP JUMPDEST PUSH1 0x0 PUSH2 0xDF8 PUSH1 0x20 DUP4 PUSH2 0x1101 JUMP JUMPDEST SWAP2 POP PUSH2 0xE03 DUP3 PUSH2 0x13D2 JUMP JUMPDEST PUSH1 0x20 DUP3 ADD SWAP1 POP SWAP2 SWAP1 POP JUMP JUMPDEST PUSH1 0x0 PUSH2 0xE1B PUSH1 0x13 DUP4 PUSH2 0x1101 JUMP JUMPDEST SWAP2 POP PUSH2 0xE26 DUP3 PUSH2 0x13FB JUMP JUMPDEST PUSH1 0x20 DUP3 ADD SWAP1 POP SWAP2 SWAP1 POP JUMP JUMPDEST PUSH1 0x0 PUSH2 0xE3E PUSH1 0x23 DUP4 PUSH2 0x1101 JUMP JUMPDEST SWAP2 POP PUSH2 0xE49 DUP3 PUSH2 0x1424 JUMP JUMPDEST PUSH1 0x40 DUP3 ADD SWAP1 POP SWAP2 SWAP1 POP JUMP JUMPDEST PUSH1 0x0 PUSH2 0xE61 PUSH1 0x11 DUP4 PUSH2 0x1101 JUMP JUMPDEST SWAP2 POP PUSH2 0xE6C DUP3 PUSH2 0x1473 JUMP JUMPDEST PUSH1 0x20 DUP3 ADD SWAP1 POP SWAP2 SWAP1 POP JUMP JUMPDEST PUSH1 0x0 PUSH2 0xE84 PUSH1 0x1E DUP4 PUSH2 0x1101 JUMP JUMPDEST SWAP2 POP PUSH2 0xE8F DUP3 PUSH2 0x149C JUMP JUMPDEST PUSH1 0x20 DUP3 ADD SWAP1 POP SWAP2 SWAP1 POP JUMP JUMPDEST PUSH1 0x0 PUSH2 0xEA7 PUSH1 0x17 DUP4 PUSH2 0x1101 JUMP JUMPDEST SWAP2 POP PUSH2 0xEB2 DUP3 PUSH2 0x14C5 JUMP JUMPDEST PUSH1 0x20 DUP3 ADD SWAP1 POP SWAP2 SWAP1 POP JUMP JUMPDEST PUSH1 0x0 PUSH2 0xECA PUSH1 0x1D DUP4 PUSH2 0x1101 JUMP JUMPDEST SWAP2 POP PUSH2 0xED5 DUP3 PUSH2 0x14EE JUMP JUMPDEST PUSH1 0x20 DUP3 ADD SWAP1 POP SWAP2 SWAP1 POP JUMP JUMPDEST PUSH1 0x0 PUSH2 0xEED PUSH1 0x12 DUP4 PUSH2 0x1101 JUMP JUMPDEST SWAP2 POP PUSH2 0xEF8 DUP3 PUSH2 0x1517 JUMP JUMPDEST PUSH1 0x20 DUP3 ADD SWAP1 POP SWAP2 SWAP1 POP JUMP JUMPDEST PUSH1 0x0 PUSH2 0xF10 PUSH1 0x16 DUP4 PUSH2 0x1101 JUMP JUMPDEST SWAP2 POP PUSH2 0xF1B DUP3 PUSH2 0x1540 JUMP JUMPDEST PUSH1 0x20 DUP3 ADD SWAP1 POP SWAP2 SWAP1 POP JUMP JUMPDEST PUSH2 0xF2F DUP2 PUSH2 0x11DD JUMP JUMPDEST DUP3 MSTORE POP POP JUMP JUMPDEST PUSH1 0x0 PUSH1 0x20 DUP3 ADD SWAP1 POP PUSH2 0xF4A PUSH1 0x0 DUP4 ADD DUP5 PUSH2 0xDB9 JUMP JUMPDEST SWAP3 SWAP2 POP POP JUMP JUMPDEST PUSH1 0x0 PUSH1 0x20 DUP3 ADD SWAP1 POP DUP2 DUP2 SUB PUSH1 0x0 DUP4 ADD MSTORE PUSH2 0xF69 DUP2 PUSH2 0xDC8 JUMP JUMPDEST SWAP1 POP SWAP2 SWAP1 POP JUMP JUMPDEST PUSH1 0x0 PUSH1 0x20 DUP3 ADD SWAP1 POP DUP2 DUP2 SUB PUSH1 0x0 DUP4 ADD MSTORE PUSH2 0xF89 DUP2 PUSH2 0xDEB JUMP JUMPDEST SWAP1 POP SWAP2 SWAP1 POP JUMP JUMPDEST PUSH1 0x0 PUSH1 0x20 DUP3 ADD SWAP1 POP DUP2 DUP2 SUB PUSH1 0x0 DUP4 ADD MSTORE PUSH2 0xFA9 DUP2 PUSH2 0xE0E JUMP JUMPDEST SWAP1 POP SWAP2 SWAP1 POP JUMP JUMPDEST PUSH1 0x0 PUSH1 0x20 DUP3 ADD SWAP1 POP DUP2 DUP2 SUB PUSH1 0x0 DUP4 ADD MSTORE PUSH2 0xFC9 DUP2 PUSH2 0xE31 JUMP JUMPDEST SWAP1 POP SWAP2 SWAP1 POP JUMP JUMPDEST PUSH1 0x0 PUSH1 0x20 DUP3 ADD SWAP1 POP DUP2 DUP2 SUB PUSH1 0x0 DUP4 ADD MSTORE PUSH2 0xFE9 DUP2 PUSH2 0xE54 JUMP JUMPDEST SWAP1 POP SWAP2 SWAP1 POP JUMP JUMPDEST PUSH1 0x0 PUSH1 0x20 DUP3 ADD SWAP1 POP DUP2 DUP2 SUB PUSH1 0x0 DUP4 ADD MSTORE PUSH2 0x1009 DUP2 PUSH2 0xE77 JUMP JUMPDEST SWAP1 POP SWAP2 SWAP1 POP JUMP JUMPDEST PUSH1 0x0 PUSH1 0x20 DUP3 ADD SWAP1 POP DUP2 DUP2 SUB PUSH1 0x0 DUP4 ADD MSTORE PUSH2 0x1029 DUP2 PUSH2 0xE9A JUMP JUMPDEST SWAP1 POP SWAP2 SWAP1 POP JUMP JUMPDEST PUSH1 0x0 PUSH1 0x20 DUP3 ADD SWAP1 POP DUP2 DUP2 SUB PUSH1 0x0 DUP4 ADD MSTORE PUSH2 0x1049 DUP2 PUSH2 0xEBD JUMP JUMPDEST SWAP1 POP SWAP2 SWAP1 POP JUMP JUMPDEST PUSH1 0x0 PUSH1 0x20 DUP3 ADD SWAP1 POP DUP2 DUP2 SUB PUSH1 0x0 DUP4 ADD MSTORE PUSH2 0x1069 DUP2 PUSH2 0xEE0 JUMP JUMPDEST SWAP1 POP SWAP2 SWAP1 POP JUMP JUMPDEST PUSH1 0x0 PUSH1 0x20 DUP3 ADD SWAP1 POP DUP2 DUP2 SUB PUSH1 0x0 DUP4 ADD MSTORE PUSH2 0x1089 DUP2 PUSH2 0xF03 JUMP JUMPDEST SWAP1 POP SWAP2 SWAP1 POP JUMP JUMPDEST PUSH1 0x0 PUSH1 0x20 DUP3 ADD SWAP1 POP PUSH2 0x10A5 PUSH1 0x0 DUP4 ADD DUP5 PUSH2 0xF26 JUMP JUMPDEST SWAP3 SWAP2 POP POP JUMP JUMPDEST PUSH1 0x0 PUSH2 0x10B5 PUSH2 0x10C6 JUMP JUMPDEST SWAP1 POP PUSH2 0x10C1 DUP3 DUP3 PUSH2 0x1228 JUMP JUMPDEST SWAP2 SWAP1 POP JUMP JUMPDEST PUSH1 0x0 PUSH1 0x40 MLOAD SWAP1 POP SWAP1 JUMP JUMPDEST PUSH1 0x0 PUSH8 0xFFFFFFFFFFFFFFFF DUP3 GT ISZERO PUSH2 0x10EB JUMPI PUSH2 0x10EA PUSH2 0x132F JUMP JUMPDEST JUMPDEST PUSH2 0x10F4 DUP3 PUSH2 0x1372 JUMP JUMPDEST SWAP1 POP PUSH1 0x20 DUP2 ADD SWAP1 POP SWAP2 SWAP1 POP JUMP JUMPDEST PUSH1 0x0 DUP3 DUP3 MSTORE PUSH1 0x20 DUP3 ADD SWAP1 POP SWAP3 SWAP2 POP POP JUMP JUMPDEST PUSH1 0x0 PUSH2 0x111D DUP3 PUSH2 0x11DD JUMP JUMPDEST SWAP2 POP PUSH2 0x1128 DUP4 PUSH2 0x11DD JUMP JUMPDEST SWAP3 POP DUP3 PUSH32 0xFFFFFFFFFFFFFFFFFFFFFFFFFFFFFFFFFFFFFFFFFFFFFFFFFFFFFFFFFFFFFFFF SUB DUP3 GT ISZERO PUSH2 0x115D JUMPI PUSH2 0x115C PUSH2 0x12A2 JUMP JUMPDEST JUMPDEST DUP3 DUP3 ADD SWAP1 POP SWAP3 SWAP2 POP POP JUMP JUMPDEST PUSH1 0x0 PUSH2 0x1173 DUP3 PUSH2 0x11DD JUMP JUMPDEST SWAP2 POP PUSH2 0x117E DUP4 PUSH2 0x11DD JUMP JUMPDEST SWAP3 POP DUP3 PUSH2 0x118E JUMPI PUSH2 0x118D PUSH2 0x12D1 JUMP JUMPDEST JUMPDEST DUP3 DUP3 DIV SWAP1 POP SWAP3 SWAP2 POP POP JUMP JUMPDEST PUSH1 0x0 PUSH2 0x11A4 DUP3 PUSH2 0x11BD JUMP JUMPDEST SWAP1 POP SWAP2 SWAP1 POP JUMP JUMPDEST PUSH1 0x0 PUSH2 0x11B6 DUP3 PUSH2 0x11BD JUMP JUMPDEST SWAP1 POP SWAP2 SWAP1 POP JUMP JUMPDEST PUSH1 0x0 PUSH20 0xFFFFFFFFFFFFFFFFFFFFFFFFFFFFFFFFFFFFFFFF DUP3 AND SWAP1 POP SWAP2 SWAP1 POP JUMP JUMPDEST PUSH1 0x0 DUP2 SWAP1 POP SWAP2 SWAP1 POP JUMP JUMPDEST DUP3 DUP2 DUP4 CALLDATACOPY PUSH1 0x0 DUP4 DUP4 ADD MSTORE POP POP POP JUMP JUMPDEST PUSH1 0x0 PUSH1 0x2 DUP3 DIV SWAP1 POP PUSH1 0x1 DUP3 AND DUP1 PUSH2 0x120E JUMPI PUSH1 0x7F DUP3 AND SWAP2 POP JUMPDEST PUSH1 0x20 DUP3 LT DUP2 EQ ISZERO PUSH2 0x1222 JUMPI PUSH2 0x1221 PUSH2 0x1300 JUMP JUMPDEST JUMPDEST POP SWAP2 SWAP1 POP JUMP JUMPDEST PUSH2 0x1231 DUP3 PUSH2 0x1372 JUMP JUMPDEST DUP2 ADD DUP2 DUP2 LT PUSH8 0xFFFFFFFFFFFFFFFF DUP3 GT OR ISZERO PUSH2 0x1250 JUMPI PUSH2 0x124F PUSH2 0x132F JUMP JUMPDEST JUMPDEST DUP1 PUSH1 0x40 MSTORE POP POP POP JUMP JUMPDEST PUSH1 0x0 PUSH2 0x1264 DUP3 PUSH2 0x11DD JUMP JUMPDEST SWAP2 POP PUSH32 0xFFFFFFFFFFFFFFFFFFFFFFFFFFFFFFFFFFFFFFFFFFFFFFFFFFFFFFFFFFFFFFFF DUP3 EQ ISZERO PUSH2 0x1297 JUMPI PUSH2 0x1296 PUSH2 0x12A2 JUMP JUMPDEST JUMPDEST PUSH1 0x1 DUP3 ADD SWAP1 POP SWAP2 SWAP1 POP JUMP JUMPDEST PUSH32 0x4E487B7100000000000000000000000000000000000000000000000000000000 PUSH1 0x0 MSTORE PUSH1 0x11 PUSH1 0x4 MSTORE PUSH1 0x24 PUSH1 0x0 REVERT JUMPDEST PUSH32 0x4E487B7100000000000000000000000000000000000000000000000000000000 PUSH1 0x0 MSTORE PUSH1 0x12 PUSH1 0x4 MSTORE PUSH1 0x24 PUSH1 0x0 REVERT JUMPDEST PUSH32 0x4E487B7100000000000000000000000000000000000000000000000000000000 PUSH1 0x0 MSTORE PUSH1 0x22 PUSH1 0x4 MSTORE PUSH1 0x24 PUSH1 0x0 REVERT JUMPDEST PUSH32 0x4E487B7100000000000000000000000000000000000000000000000000000000 PUSH1 0x0 MSTORE PUSH1 0x41 PUSH1 0x4 MSTORE PUSH1 0x24 PUSH1 0x0 REVERT JUMPDEST PUSH1 0x0 DUP1 REVERT JUMPDEST PUSH1 0x0 DUP1 REVERT JUMPDEST PUSH1 0x0 DUP1 REVERT JUMPDEST PUSH1 0x0 DUP1 REVERT JUMPDEST PUSH1 0x0 PUSH1 0x1F NOT PUSH1 0x1F DUP4 ADD AND SWAP1 POP SWAP2 SWAP1 POP JUMP JUMPDEST PUSH32 0x4D616A6F7269747920537570706F7274206D61726B20686173206E6F74206265 PUSH1 0x0 DUP3 ADD MSTORE PUSH32 0x656E2063726F7373656400000000000000000000000000000000000000000000 PUSH1 0x20 DUP3 ADD MSTORE POP JUMP JUMPDEST PUSH32 0x4D696E696D756D20436F6E747269627574696F6E20686173206E6F74206D6574 PUSH1 0x0 DUP3 ADD MSTORE POP JUMP JUMPDEST PUSH32 0x446561646C696E65206861732070617373656400000000000000000000000000 PUSH1 0x0 DUP3 ADD MSTORE POP JUMP JUMPDEST PUSH32 0x4F6E6C79204D616E616765722063616E2063616C6C20746869732066756E6374 PUSH1 0x0 DUP3 ADD MSTORE PUSH32 0x696F6E0000000000000000000000000000000000000000000000000000000000 PUSH1 0x20 DUP3 ADD MSTORE POP JUMP JUMPDEST PUSH32 0x4E6F74206120636F6E7472696275746F72000000000000000000000000000000 PUSH1 0x0 DUP3 ADD MSTORE POP JUMP JUMPDEST PUSH32 0x416C72656164792044697374726962757465642074686520616D6F756E740000 PUSH1 0x0 DUP3 ADD MSTORE POP JUMP JUMPDEST PUSH32 0x53686F756C64206265206120436F6E7472696275746F72000000000000000000 PUSH1 0x0 DUP3 ADD MSTORE POP JUMP JUMPDEST PUSH32 0x446561646C696E6520686173206E6F7420657870697265642079657421000000 PUSH1 0x0 DUP3 ADD MSTORE POP JUMP JUMPDEST PUSH32 0x54617267657420686173206E6F74206D65740000000000000000000000000000 PUSH1 0x0 DUP3 ADD MSTORE POP JUMP JUMPDEST PUSH32 0x596F75206861766520616C726561647920766F74656400000000000000000000 PUSH1 0x0 DUP3 ADD MSTORE POP JUMP JUMPDEST PUSH2 0x1572 DUP2 PUSH2 0x1199 JUMP JUMPDEST DUP2 EQ PUSH2 0x157D JUMPI PUSH1 0x0 DUP1 REVERT JUMPDEST POP JUMP JUMPDEST PUSH2 0x1589 DUP2 PUSH2 0x11AB JUMP JUMPDEST DUP2 EQ PUSH2 0x1594 JUMPI PUSH1 0x0 DUP1 REVERT JUMPDEST POP JUMP JUMPDEST PUSH2 0x15A0 DUP2 PUSH2 0x11DD JUMP JUMPDEST DUP2 EQ PUSH2 0x15AB JUMPI PUSH1 0x0 DUP1 REVERT JUMPDEST POP JUMP INVALID LOG2 PUSH5 0x6970667358 0x22 SLT KECCAK256 STATICCALL SHR 0xC4 MOD 0xA9 DIFFICULTY PUSH3 0x2A7785 DUP8 DUP11 0xDF SWAP9 DUP13 MSIZE PUSH30 0x20BDAF849F34E23F2C18B1A684E6BE64736F6C6343000807003300000000 "
				},
				"gasEstimates": {
					"creation": {
						"codeDepositCost": "1120800",
						"executionCost": "infinite",
						"totalCost": "infinite"
					},
					"external": {
						"contributors(address)": "2837",
						"createRequest(string,address,uint256)": "infinite",
						"deadLine()": "2451",
						"getContractBalance()": "384",
						"makePayment(uint256)": "infinite",
						"manager()": "2559",
						"minContribution()": "2496",
						"noOfContributors()": "2518",
						"noOfRequests()": "2473",
						"raiseAmount()": "2517",
						"reFund()": "infinite",
						"sendEther()": "infinite",
						"target()": "2495",
						"voteRequest(uint256)": "infinite"
					}
				},
				"methodIdentifiers": {
					"contributors(address)": "1f6d4942",
					"createRequest(string,address,uint256)": "1b16bb5c",
					"deadLine()": "bef3a083",
					"getContractBalance()": "6f9fb98a",
					"makePayment(uint256)": "5114cb52",
					"manager()": "481c6a75",
					"minContribution()": "aaffadf3",
					"noOfContributors()": "4e260f6f",
					"noOfRequests()": "c1f11b4c",
					"raiseAmount()": "db638f0b",
					"reFund()": "0ff0a4df",
					"sendEther()": "0e29df22",
					"target()": "d4b83992",
					"voteRequest(uint256)": "4cb6f4a5"
				}
			},
			"storageLayout": {
				"storage": [
					{
						"astId": 5,
						"contract": "contracts/CrowdFunding.sol:CrowdFunding",
						"label": "contributors",
						"offset": 0,
						"slot": "0",
						"type": "t_mapping(t_address,t_uint256)"
					},
					{
						"astId": 7,
						"contract": "contracts/CrowdFunding.sol:CrowdFunding",
						"label": "manager",
						"offset": 0,
						"slot": "1",
						"type": "t_address"
					},
					{
						"astId": 9,
						"contract": "contracts/CrowdFunding.sol:CrowdFunding",
						"label": "minContribution",
						"offset": 0,
						"slot": "2",
						"type": "t_uint256"
					},
					{
						"astId": 11,
						"contract": "contracts/CrowdFunding.sol:CrowdFunding",
						"label": "deadLine",
						"offset": 0,
						"slot": "3",
						"type": "t_uint256"
					},
					{
						"astId": 13,
						"contract": "contracts/CrowdFunding.sol:CrowdFunding",
						"label": "target",
						"offset": 0,
						"slot": "4",
						"type": "t_uint256"
					},
					{
						"astId": 15,
						"contract": "contracts/CrowdFunding.sol:CrowdFunding",
						"label": "raiseAmount",
						"offset": 0,
						"slot": "5",
						"type": "t_uint256"
					},
					{
						"astId": 17,
						"contract": "contracts/CrowdFunding.sol:CrowdFunding",
						"label": "noOfContributors",
						"offset": 0,
						"slot": "6",
						"type": "t_uint256"
					},
					{
						"astId": 37,
						"contract": "contracts/CrowdFunding.sol:CrowdFunding",
						"label": "requests",
						"offset": 0,
						"slot": "7",
						"type": "t_mapping(t_uint256,t_struct(Request)32_storage)"
					},
					{
						"astId": 39,
						"contract": "contracts/CrowdFunding.sol:CrowdFunding",
						"label": "noOfRequests",
						"offset": 0,
						"slot": "8",
						"type": "t_uint256"
					}
				],
				"types": {
					"t_address": {
						"encoding": "inplace",
						"label": "address",
						"numberOfBytes": "20"
					},
					"t_address_payable": {
						"encoding": "inplace",
						"label": "address payable",
						"numberOfBytes": "20"
					},
					"t_bool": {
						"encoding": "inplace",
						"label": "bool",
						"numberOfBytes": "1"
					},
					"t_mapping(t_address,t_bool)": {
						"encoding": "mapping",
						"key": "t_address",
						"label": "mapping(address => bool)",
						"numberOfBytes": "32",
						"value": "t_bool"
					},
					"t_mapping(t_address,t_uint256)": {
						"encoding": "mapping",
						"key": "t_address",
						"label": "mapping(address => uint256)",
						"numberOfBytes": "32",
						"value": "t_uint256"
					},
					"t_mapping(t_uint256,t_struct(Request)32_storage)": {
						"encoding": "mapping",
						"key": "t_uint256",
						"label": "mapping(uint256 => struct CrowdFunding.Request)",
						"numberOfBytes": "32",
						"value": "t_struct(Request)32_storage"
					},
					"t_string_storage": {
						"encoding": "bytes",
						"label": "string",
						"numberOfBytes": "32"
					},
					"t_struct(Request)32_storage": {
						"encoding": "inplace",
						"label": "struct CrowdFunding.Request",
						"members": [
							{
								"astId": 19,
								"contract": "contracts/CrowdFunding.sol:CrowdFunding",
								"label": "description",
								"offset": 0,
								"slot": "0",
								"type": "t_string_storage"
							},
							{
								"astId": 21,
								"contract": "contracts/CrowdFunding.sol:CrowdFunding",
								"label": "recipient",
								"offset": 0,
								"slot": "1",
								"type": "t_address_payable"
							},
							{
								"astId": 23,
								"contract": "contracts/CrowdFunding.sol:CrowdFunding",
								"label": "value",
								"offset": 0,
								"slot": "2",
								"type": "t_uint256"
							},
							{
								"astId": 25,
								"contract": "contracts/CrowdFunding.sol:CrowdFunding",
								"label": "isCompleted",
								"offset": 0,
								"slot": "3",
								"type": "t_bool"
							},
							{
								"astId": 27,
								"contract": "contracts/CrowdFunding.sol:CrowdFunding",
								"label": "noOfVoters",
								"offset": 0,
								"slot": "4",
								"type": "t_uint256"
							},
							{
								"astId": 31,
								"contract": "contracts/CrowdFunding.sol:CrowdFunding",
								"label": "voters",
								"offset": 0,
								"slot": "5",
								"type": "t_mapping(t_address,t_bool)"
							}
						],
						"numberOfBytes": "192"
					},
					"t_uint256": {
						"encoding": "inplace",
						"label": "uint256",
						"numberOfBytes": "32"
					}
				}
			},
			"userdoc": {
				"kind": "user",
				"methods": {},
				"version": 1
			}
		}
	}
}